:03000000020C1DD2
:100C1D0078FFE4F6D8FD9000007F007E04E4F0A399
:0A0C2D00DFFCDEFA758122020C7272
:100E5C00440070FFFFFFFF410077FF4300744C6FAD
:010E6C000085
:03008B000214B2AA
:1014B200C0E0C0F0C083C082C0D075D000C000C000
:1014C20001C002C003C004C005C006C00712200B41
:1014D200D007D006D005D004D003D002D001D0006E
:0B14E200D0D0D082D083D0F0D0E03218
:0300130002136A6B
:10136A00C0E0C0F0C083C082C0D075D000C000C049
:10137A0001C002C003C004C005C006C0077F202008
:10138A00A60512008E8003121942D007D006D00596
:10139A00D004D003D002D001D000D0D0D082D083E4
:0513AA00D0F0D0E0329C
:10090600E4900000F0A3F0A3F0A3F0A3F01217D137
:1009160012173912198312183412181D12192912B6
:10092600191475E6407FE87E031217B57B017A003D
:1009360079749000097402F07F601215987FE87E42
:10094600031217B57B017A0079749000097402F0DE
:100956007F601215987F40121942120F37900002DD
:10096600EFF0D394007480948040127F13120ECB64
:10097600900002E0640270057F13120ECB120AD0BB
:10098600121950EFF470207F01120A059000777457
:10099600FFF07F1012008E900001E004F07054907A
:1009A6000000E004F0804C121950900077E06F6070
:1009B60042121950900077EFF07F10121942900002
:1009C60077E06401700B900003E0FEA3E0FF1204E1
:1009D600A1900077E0640270067F01FE1206749013
:1009E6000077E064037005FFFE120674E4900000D1
:0F09F600F0A3F012185FEF60841212DB02098386
:011F300002AE
:011F3100208F
:011F320000AE
:011F3300FFAE
:011F3400FDAF
:011F3500F8B3
:011F370001A8
:011F38001098
:011F3900089F
:011F3A0001A5
:011F3B0000A5
:011F3C00FDA7
:011F3D00F8AB
:011F3E0000A2
:011F3F0000A1
:011F40000F91
:011F4100029D
:011F4200207E
:011F4300009D
:011F44003F5D
:011F45003F5C
:011F46003F5B
:011F47000198
:011F48000098
:011F49001F78
:011F4A004056
:011F4B000095
:011F50000090
:011F5100008F
:011F5200008E
:011F5300008D
:011F5400008C
:011F5500008B
:011F5600008A
:011F57000089
:011F58000088
:011F59000087
:011F5A000086
:011F5B000085
:011F5C000084
:011F5D000083
:011F5E000082
:011F5F000081
:101F60000A0A0A0A0A0A0A0A0A0A0A0A0A0A0A0AD1
:101F700019191919191919191919191919191919D1
:101F8000CDCDCDCDCDCDCDCDCDCDCDCDCDCDCDCD81
:081F9000CDCDCDCDCDCDCDCDE1
:101FA000FFFFFFFFFFFFFFFFFFFFFFFFFFFFFFFF41
:101FB000FFFFFFFFFFFFFFFFFFFFFFFFFFFFFFFF31
:101FC000FFFFFFFFFFFFFFFFFFFFFFFFFFFFFFFF21
:101FD0000000000000000000000000000000000001
:101FE00000000000000000000000000000000000F1
:101FF00000000000000000000000000000000000E1
:100E6D004100340041004A00410035005400360075
:100E7D000000000000000000000000000000000065
:030E8D0000000062
:10181D0053D5BF43D44053D3FE43D20143D30253D8
:07182D00D2FDC296C2802229
:050ECB0090000CEFF0A7
:100ED000E4A3F0900034E0701530811204F090002B
:100EE0000CE090004AF0E4900035F002197AE490AA
:100EF000000DF090000DE0FFFD7C00C394147480A1
:100F00009480501574362FF582E43400F583E06048
:100F10000890000DE004F080DAC3ED9414EC6480D6
:100F20009480501290000CE0FFA3E02436F582E498
:060F30003400F583EFF030
:010F36002298
:10123D00E4FF900034E0700320814512197DE4FF36
:10124D00EFC3941474809480500F74362FF582E49C
:10125D003400F583E4F00F80E7900035E0C394048B
:10126D0074809480E490004A400CF0900034740334
:10127D00F0E4A3F08007F09000347403F012197AB3
:01128D00223E
:100CB700900034E0FD7C006401704CA3E0FF7E00EF
:100CC7007006D296C2808017EF64024E7004C296F7
:100CD700800DC3EF9404EE648094804002B280904C
:100CE7000035E004F090004AE025E0FFE433FEEF32
:100CF7002406FFE43EFE900035E0C39FEE6480F8D3
:100D070074809840438035ED64034C703B90003508
:100D1700E0FF7E007004C2808012EF64014E700411
:100D2700D2968008EF64034E7002C296900035E0B9
:100D370004F0E0C3940474809480400CE4F0C296FD
:090D4700C2809000347402F02215
:100D5000900034E064026003020DE4208103020D80
:100D6000E4900036E0700D90004AF012197DE49096
:040D70000034F02239
:100D7400E490001AF090003404F0900036E0900003
:100D84004AF0E490001AF090001AE0FF3395E0FE78
:100D9400C3EF9413EE64809480502B74372FF58244
:100DA40074003EF583E0FF601D90001AE0FD33956A
:100DB400E0FC74362DF58274003CF583EFF090006E
:100DC4001AE004F080C190001AE0FF3395E0FE744D
:0F0DD400362FF58274003EF583E4F0900035F081
:050DE30022120CB722F2
:1017D10053D5F743D40843D51053D4EF43D58053A1
:0B17E100D47F43D50453D4FBD29322E5
:10168300C2935398EF43D74053D6BF43D72053D683
:10169300DFC2A6C2A543D30153D2FE43D54053D4E0
:0616A300BFC280C29622C6
:03197700D29322E6
:1018880043D74053D6BFC2A6D28A43E50843EE04E5
:03189800D2AA22AF
:100E9000500060EF01FFFFFFFF010007410101006B
:030EA00050009B64
:0919290043D30853D2F702005623
:10163000E490009CF090009CE0FFC39410748094B0
:1016400080501774602FF582E43400F583E0FF12B8
:0A165000000390009CE004F080DB32
:01165A00226D
:05184A0012184FD2A3AB
:0F184F00E4FFEFC3940A7480948050030F80F37A
:01185E002267
:1018C00043DB0143DA0143D70843D608D2B0D2A3A1
:0118D00022F5
:0A17EC00EBF0A3EAF0A3E9F0AE076A
:0F17F600D2B0D2A312184FC2B012184FC2A32202
:0A191F00C2A3C2B012184AD2B022CF
:02156200AE07D2
:10156400E4FDC2A3D2B0FCECC39408748094805010
:101574001212184AED25E0FD30B0034401FDC2A368
:101584000C80E4EE6004D2B08002C2B012184AC2E9
:03159400A3AF05FD
:011597002231
:0215CC00AE0768
:1015CE00C2A3E4FDEDC39408748094805016EE30EF
:1015DE00E704D2B08002C2B0EE25E0FE12184AC275
:1015EE00A30D80E0D2B012184AA2B0E433FFC2A31A
:0115FE0022CA
:0310CD0090007917
:1010D0001217ECEE4401FF1215CCE490007DF09065
:1010E000007CE014FFA3E0C39F5025E4FF121562CB
:1010F000900079E0FBA3E0FAA3E0F990007DE0F531
:1011000082758300EF1202D290007DE004F080CF60
:101110007F01121562900079E0FBA3E0FAA3E0F9E9
:1011200090007DE0F582758300EF1202D202191F54
:03159800900006BA
:10159B001217ECAF061215CCE4FC900009E0FFEC3F
:1015AB00C39F501A900006E0FBA3E0FAA3E0F98C6E
:1015BB00827583001202A5FF1215CC0C80DC021978
:0115CB001F00
:1017390090FFEA741CF0D29590FF1C7401F0A3E4A9
:10174900F0A3F090FF207423F090FF1F7491F02212
:0719420090FF1DE04FF022B1
:0C008E0090FF1DE0FEEFF4FFEE5FF0229B
:1018340043A80A758922758C38758A38758D59754F
:061844008B5943D9082274
:03197A00D28C22EA
:03197D00C28C22F7
:1017B500900098EEF0A3EFF0D28ED3900099E094CC
:0C17C50000900098E0940050F1C28E22C9
:03000B000214EDEF
:1014ED00C0E0C0F0C083C082C0D075D000C000C0C5
:1014FD0001C002C003C004C005C006C007120D50D4
:10150D00D007D006D005D004D003D002D001D00032
:0B151D00D0D0D082D083D0F0D0E032DC
:03001B00020026BA
:10002600C0E0C083C082C0D0D3900099E094009015
:100036000098E09400400CA3E024FFF0900098E0C4
:0C00460034FFF0D0D0D082D083D0E03264
:040EA30041009DFF6E
:03009B00021779D0
:10177900C0E0C0F0C083C082C0D075D008C2AF122B
:0F1789002011D2AFD0D0D082D083D0F0D0E032B8
:031980000220142E
:031983000220053A
:100AD00012200885BB2085F421E520700BE52170EC
:100AE0000790009D74FFF02290009DE0F4600302E7
:100AF0000B793000047407F022300102804D30027F
:100B00000790009D7408F02230030790009D740147
:100B1000F02230040790009D7404F022300506E4B2
:100B200090009DF02230060790009D7402F0223064
:100B3000070790009D7405F022300802800D3009EF
:100B4000028008300A028003300B0790009D74FE7B
:100B5000F022300C0790009D7406F022300D0790B3
:100B6000009D7403F022300E0790009D740FF02258
:0A0B7000300F0690009D740EF02275
:0619500090009DE0FF2263
:060EA700C11041005F00D4
:1000560075BA0375AAF743919043878043A89075B4
:100066009850C299E4FFEFC3941474809480500FA3
:10007600744B2FF582E43400F583E4F00F80E7E457
:0400860090005FF097
:01008A002253
:030023000213F1D4
:1013F100C0E0C083C082C0D075D000C00730982241
:10140100C29890005FE0C39414748094805017E0F8
:10141100FF04F0744B2FF582E43400F583E599F075
:101421008004C210C299D007D0D0D082D083D0E03E
:011431003288
:08000300D2108F992010FD229C
:1018D100C2AF75F75575F7AA75F75A438F01D2AFA5
:0118E10022E4
:1018E200C2AF75F75575F7AA75F75A538FFED2AF87
:0118F20022D3
:10180500AB07AA061218D1EAF5E1AF038FE2AF05DF
:081815008FE3E4F5E40218E2A0
:1018AE001218D1E4F5E18FE2AF058FE375E4030280
:0218BE0018E22E
:101904001218D1E4F5E18FE275E404AFE30218E2C2
:081932008F828E83E493FF22F3
:070EAD0042009A0000C11190
:061956008FAC43AC8022BF
:0B19140075AB4075AF1FD2BAD2AF22F6
:1018F300E4AFADEF75F010A4FFAEF0ADAEEF4DFF6A
:0119030022C1
:030053000215FF94
:1015FF00C0E0C0F0C083C082C0D075D000C005C0AD
:10160F0006C0071218F390009AEEF0A3EFF0D21174
:10161F00D007D006D005D0D0D082D083D0F0D0E084
:01162F003288
:10189B007F061219563011FDC21190009AE0FEA37B
:0318AB00E0FF2239
:05193A00900010EFF029
:03193F0002189BF0
:080DE800900009EFF0A3EDF00B
:100DF000A312042400000000E490000FF090000A09
:100E0000E0FF90000FE0C39F503A90000BE0F8A382
:100E1000E0F9A3E0FAA3E0FB900009E0FF12193A21
:100E2000E4FCFDEB2FFFEA3EFEED39FDEC38FC90D3
:100E3000000B1204187F057E001217B590000FE01A
:100E400004F080B990000AE0FBE4FAF9F8A3E0FCB2
:0C0E5000A3E0FDA3E0FEA3E0FF020365A9
:100F37007F057E001217B57D0A7F40120DE8AD07C9
:100F4700AC06E41202227B337A337953783A1200E3
:100F57009E9000051204187F7B7E147D0E7C4090C6
:100F67000005E0F8A3E0F9A3E0FAA3E0FB1201A46F
:100F770050037F02227F5C7E8F7D167C40900005A8
:100F8700E0F8A3E0F9A3E0FAA3E0FB1201A4500301
:050F97007F01227F0034
:010F9C002232
:0B0EB40044001BFFFFFFFF41001F0078
:1018740090001BE0FCA3E0FDA3E0FEA3E0FF120444
:01188400055E
:031885000200035B
:0E132400EEF0EFA3F0A3EDF0A3EAF0A3EBF0E0
:101332007FEF1218857F01121885781812187478B9
:101342001012187490001BE0FCA3E0FDA3E0FEA3C2
:10135200E0FF780812040512188590001BA3A3A3CE
:08136200E0FF1218857F002254
:03198600021885BF
:041798007F037E004D
:10179C00900015EEF0A3EFF0900015E0FF12188505
:0917AC00900015A3E0FF0218856E
:03198900021885BC
:1013AF00FFE433FE7C00EF2DFFEC3EFEA3E02FFDAC
:1013BF00EC3EA3FCE0FAA3E0FBEA7E002DFFEE3C3F
:0913CF00FE7C00EF2BFFEC3EFE5A
:1013D800900015EEF0A3EFF0900015E0FF121885CD
:0913E800900015A3E0FF02188536
:0607D7007D037FE87E03B4
:0B07DD00900015EEF0A3EFF0A3EDF08C
:1007E800E4A3F0A3F090001574FFF5F01202F445AD
:1007F800F070030209037F017E001217B5900017FD
:10080800E02409FFE433FE90005FE0C39FEE6480BC
:10081800F874809840CFE4900018F090005FE0FFF3
:10082800900018E0FEC39F5029744B2EF582E434E3
:1008380000F583E064EF7012900018E0244CF58214
:10084800E43400F583E064016008900018E004F0E7
:1008580080C9900018E0FF244BF582E43400F5834A
:10086800E064EF7080744C2FF582E43400F583E087
:10087800640160030207ED900018E0FD2451F58241
:10088800E43400F583E0640760030207ED74522D39
:10089800F582E43400F583E0FE74532DF582E434E8
:1008A80000F583E07C002400FFEC3EFE900017E09A
:1008B8006F7001EE60030207ED90005FE0FF9000AB
:1008C80018E0FEC39F5029744B2EF582E43400F5DE
:1008D80083E0FF900019E02420F582E43400F583DA
:1008E800EFF0900019E004F0900018E004F080C9DF
:0D08F800E490005FF0900029E0FF227F01F6
:0109050022CF
:101759001213327F011219861217987F53121989B1
:101769007F577E001213D87D037FE87E030207DDD1
:10165B00E490005FF0121332EF640170037FFF22FE
:10166B007F011219861217987F011219897F057E47
:08167B00001213D81207D72258
:1015280090000CEFF0121332EF640170037FFF227A
:101538007F011219867F047E0012179C7F02121900
:101548008990000CE0FF12188590000CE02407FF3A
:0A155800E433FE1213D81207D72265
:1016A900121332EF640170037FFF227F0112198642
:1016B9001217987F031219897F077E001213D87DAC
:0516C900051207D92203
:1016F300121332EF640170037FFF227F01121986F8
:101703001217987F051219897F097E001213D812C8
:0317130007D722D3
:100F9D0090000CEFF0A3ECF0A3EDF0121332EF6420
:100FAD000170037FFF227F011219867F067E0012DA
:100FBD00179C7F0612198990000CE0FF121885907E
:100FCD00000DE0FF12188590000DA3E0FF121885AB
:100FDD0090000DE0FCA3E0FDECFF7E0090000CE026
:100FED00240DFBE433CB2FFFEE3BFE7C00EF2D12E7
:060FFD0013D41207D722F5
:1010030090000CEEF0A3EFF0A3ECF0A3EDF01213BD
:1010130032EF640170037FFF227F011219867F077D
:101023007E0012179C7F0C12198990000CE0FF12AE
:10103300188590000CA3E0FF12188590000EE0FFC6
:1010430012188590000EA3E0FF12188590000CE0A3
:10105300FCA3E0FDEC2414FFE433FE7C00EF2D122F
:0610630013BE1207D722A4
:060B7A0090000CEFF0EC0E
:100B8000121327EF640170037FFF227F0112198681
:100B90007F087E0012179C7F1B12198990000CE0C1
:100BA000FF12188590000DE0FF12188590000DA32C
:100BB000E0FF12188590000FE0FF12188590000FDB
:100BC000A3E0FF12188590000DE0FCA3E0FDECFF10
:100BD0007E0090000CE02424FBE433CB2FFFEE3B9F
:100BE000FE7C00EF2DFDEC3E90000F1213C27D073E
:100BF0001207D9900014EFF090002AE0FEA3E07CE9
:100C0000002400FFEC3EF9900011E0FBA3E0FAA302
:0C0C1000E0C98FF012030A900014E0FF0E
:010C1C0022B5
:10171600121332EF640170037FFF227F01121986D4
:101726001217987F0D1219897F117E001213D81295
:0317360007D722B0
:0B11E40090008DEBF0A3EAF0A3E9F00F
:1011EF00121332EF640170037FFF227F0112198601
:1011FF001217987F1D1219897F217E001213D87D37
:10120F00051207D9900090EFF090002AE0FEA3E0BE
:10121F007C002400FFEC3EF990008DE0FBA3E0FA88
:0D122F00A3E0C98FF012030A900090E0FFC9
:01123C00228F
:1011300090007E121324EF640170037FFF227F0171
:101140001219867F087E0012179C7F311219899030
:10115000007EE0FF12188590007EA3E0FF12188544
:10116000900080E0FF121885900081E0FF12188542
:10117000900081A3E0FF12188590007EE0FCA3E0C0
:0A118000FDEC243A1213AF7F0022A9
:10118A00900083121324EF640170037FFF227F0112
:10119A001219867F087E0012179C7F3212198990D5
:1011AA000085E0FF121885900083E0FF12188590F1
:1011BA000083A3E0FF121885900086E0FF121885CD
:1011CA00900086A3E0FF121885900083E0FCA3E05C
:0A11DA00FDEC243B1213AF7F00224E
:1014320012045500000000121332EF640170037FA2
:10144200FF227F011219867F077E0012179C7F13ED
:10145200121989E4FF121885E4FF121885E4FF12BD
:101462001885E4FF1218857F1B7E001213D87F00B7
:011472002257
:03198C007F0022B7
:1016CE00121332EF640170037FFF227F011219861D
:1016DE001217987F601219897F647E001213D890BA
:0416EE00009EE0FF7B
:0116F20022D5
:050A050090000CEFF071
:100A0A0090001FE06F7003020ACF121332EF6401E5
:100A1A007003020ACF7F011219867F077E00121720
:100A2A009C7F4112198990000CE0606824FE6026C0
:100A3A001460422402707B7F011218857F0112180C
:100A4A0085E4FF1218857F5012188590000DE4F096
:100A5A00A3749BF0805C7F011218857F02121885AF
:100A6A007F02121885E4FF12188590000DE4F0A3A6
:100A7A00744EF0803D7F011218857F041218857F1D
:100A8A0004121885E4FF12188590000DE4F0A3748F
:100A9A0052F0801E7F04121885E4FF121885E4FFC5
:100AAA001218857FC812188590000D7401F0A3747E
:100ABA0015F090000DE0FEA3E0FF1213D890000C91
:050ACA00E090001FF0A8
:010ACF002204
:06195C0090001FE0FF22D5
:0B0EBF00440088FFFFFFFF41008C0093
:03198F007F0122B3
:05000E00E4FF02165B97
:10147300E4FEEFFD7C00700790009F04F08028EDF0
:1014830064014C700890009F7402F0801AED6402AE
:101493004C700890009F7403F0800CED64034C7053
:0F14A3000690009F7404F090009FE0FF02152850
:05001600E4FF0216A941
:05001E00E4FF0216F3EF
:08128E00900095ECF0A3EDF0D7
:10129600E4FEEFFD7C007005A304F08028ED6401F8
:1012A6004C70089000977402F0801AED64024C703E
:1012B600089000977403F0800CED64034C70069060
:1012C60000977404F0900097E0FF900095E0FCA36F
:0512D600E0FD020F9D88
:07194900E4FD0DFC02100398
:05196800E4FF02171668
:05196D00E4FF0211E49B
:0B106900900091EBF0A3EAF0A3E9F087
:10107400E4FEEFFD7C007005A304F08028ED64011C
:101084004C70089000947402F0801AED64024C7065
:10109400089000947403F0800CED64034C70069087
:1010A40000947404F0900094E0FF900091E0F9A3A0
:1010B400E0FAA3E0900011C9F0A3EAF0A3E9F07B01
:0910C4002C7A01E4FDFC020B7A18
:03199200020A0541
:05197200E4FF02195C16
:10185F0020830A90008CE0700904F0FF22E49000CE
:05186F008CF07F002257
:06196200A283E433FF2222
:0804A100900005EEF0A3EFF05E
:1004A900E4A3F0900009F0A3F0A3F0900009E0B4F0
:1004B900070040030206519004C7F8282873020474
:1004C900DC0204E702053D0205480205A40205D045
:1004D9000205F27F07120ECB9000097401F090001B
:1004E90007E004F012165B900008EFF060030206C3
:1004F900517F01121528900008EFF0703590001116
:1005090004F0A37400F0A3740AF07B2C7A01E4FDD3
:10051900FC7F01120B7A900008EFF07002806F7F68
:1005290002120A05E4900007F09000097402F00233
:100539000651805A7F08120ECB9000097403F0907F
:100549000007E004F012165B900008EFF060030268
:1005590006517F02121528900008EFF070309000C4
:100569001104F0A37400F0A3740AF07B2C7A01E45F
:10057900FDFC7F02120B7A900008EFF07002800EEA
:10058900E4900007F09000097404F00206517F031B
:10059900120A057F12120ECB0206511216A99000FB
:1005A90008EFF06003F470099000097405F0020681
:1005B900517F03120A057F20120ECB7F12120ECB38
:1005C900E4900007F0807D1216F3900008EFF070B8
:1005D90006A37406F080717F03120A057F05120EC7
:1005E900CB7F12120ECBE4805BD3900006E09432ED
:1005F900900005E09400400F7F03120A057F0B125B
:100609000ECB7F12020ECB900005E0FCA3E0FD7F2C
:1006190002120F9D900008EFF070197F02120A056F
:100629007F06120ECB900006E004F0703D900005A5
:10063900E004F0227F03120A057F05120ECB7F1218
:10064900120ECBE4900009F07F2C7E011217B590B1
:100659000007E0640560030204B4FF120A057F2C59
:0A0669007E011217B57F03120A0587
:010673002264
:08067400900005EEF0A3EFF089
:10067C00E4A3F0900009F0A3F0A3F0EF4E70121277
:10068C001716900008EFF0700302079E7F1B0207FD
:10069C00A0900005E07004A3E0640160030207D69B
:1006AC00900009E014601E14606F146077147003DE
:1006BC00020783240460030207AD7F07120ECB9060
:1006CC0000097401F0900007E004F012165B900032
:1006DC0008EFF060030207AD7F01121528900008A7
:1006EC00EFF0703390001104F0A37400F0A3740ABF
:1006FC00F07B2C7A01E4FDFC7F01120B7A90000850
:10070C00EFF0706A7F02120A05E4900007F0900087
:10071C00097402F00207AD80557F08120ECB9000D1
:10072C00097403F0900007E004F012165B900008C7
:10073C00EFF0706D7F02121528900008EFF0702E0C
:10074C0090001104F0A37400F0A3740AF07B2C7ACF
:10075C0001E4FDFC7F02120B7A900008EFF0700CA4
:10076C00900007F09000097404F0803580007F033E
:10077C00120A057F12802790000AE0FEA3E0FF7D9D
:10078C00017C00121003900008EFF0700A7F021237
:10079C000A057F1C020ECB7F03120A057F1B120E6B
:1007AC00CB7F207E031217B5900007E06405600331
:1007BC000206ACFF120A057F2C7E011217B57F03CF
:0A07CC00120A057F2C7E011217B5FA
:0107D6002200
:1012DB00E4900005F0A3F012165BEF703B7F011258
:1012EB001528EF702990001104F0A37400F0A3747B
:1012FB0005F07B2C7A01E4FDFC7F01120B7AEF7079
:10130B00097F09120ECB7F0A800B7F1280077F03A8
:08131B00120A057F12120ECB2D
:0113230022A7
:10009E00EC4D6011E8497017ED33EC3304600DE45C
:1000AE00FCFFFEFD22E933E8330470F802029012E1
:1000BE00025B58046009E4CC2481500628500902E2
:1000CE00029A284003020297C0E0EB4A7044B980BE
:1000DE0006D0E0FB020286EF4E701CBD8008EBFFDF
:1000EE00EAFEE9FD80EBE98DF0A4FEE5F002018762
:1000FE00E9CDF9EAFEEBFFEF89F0A4FCE5F0CE893D
:10010E00F0A42EFFE435F0CD89F0A42DFEE435F0F9
:10011E008067EF4E7005BD80D780C3EF8BF0A4AC27
:10012E00F0EE8BF0A42CFCE435F0F8EF8AF0A42C62
:10013E00E5F038FCE433CB8DF0A42CFCE5F03BF875
:10014E00EE8AF0A42CFCE5F038F8E433CF89F0A465
:10015E002CFCE5F038CF3400CE89F0A42FFFE5F06B
:10016E003EFEE433C98DF0A42EFEE5F039CD8AF0C3
:10017E00A42FFFE5F03EFEE43DFD33D0E0FB50073B
:10018E000BBB000F02029AEC2CFCEF33FFEE33FE9A
:06019E00ED33FD020272C8
:1001A40074F8CC6480CCC86480C8F58204604FC302
:1001B400EB9FF5F0EA9E42F0E99D42F0E89C45F0A1
:1001C400603C501DE5825FFFE582D313CB5BCBF42B
:1001D4002B5582FB50280ABA002409B90020088054
:1001E4001DE5825BFBE582D313CF5FCFF4C3132FEE
:1001F4005582FF50090EBE00050DBD00010CC3EB76
:100204009FF5F0EA9E42F0E99D42F0E89C45F060DB
:0902140007CC4820E701B3EC22FD
:10021D0075F020800E75F010800575F0087D007E5C
:10022D00007F003392D530D5031203F7EC33401025
:10023D00EF33FFEE33FEED33FDEC33FCD5F0ED2265
:0E024D00E5F0247EA2D513CC92E7CDCEFF22A1
:10025B00E9D2E7C933E833F892D5EDD2E7CD33ECE9
:07026B0033FC5002B2D52262
:10027200EC30E7100FBF000C0EBE00080DBD0004ED
:100282000BEB6014A2D5EB13FCED92E7FD2274FF99
:10029200FCFDFEFF22E480F8A2D574FF13FC7D80F2
:0302A200E480EF06
:100C3700020906E493A3F8E493A34003F68001F2C4
:100C470008DFF48029E493A3F85407240CC8C333BE
:100C5700C4540F4420C8834004F456800146F6DF8D
:100C6700E4800B0102040810204080900E5CE47EB3
:100C7700019360BCA3FF543F30E509541FFEE49382
:100C8700A360010ECF54C025E060A840B8E493A349
:100C9700FAE493A3F8E493A3C8C582C8CAC583CA74
:100CA700F0A3C8C582C8CAC583CADFE9DEE780BE2C
:010ECA000027
:1002A500BB010CE58229F582E5833AF583E022500E
:1002B50006E92582F8E622BBFE06E92582F8E22258
:0D02C500E58229F582E5833AF583E4932272
:1002D200F8BB010DE58229F582E5833AF583E8F062
:1002E200225006E92582C8F622BBFE05E92582C80E
:0202F200F222F6
:1002F400C5F0F8A3E028F0C5F0F8E5821582700295
:060304001583E038F02231
:10030A00BB010A89828A83F0E5F0A3F0225006F73E
:0F031A0009A7F01922BBFE06F3E5F009F319223B
:1003290075F008758200EF2FFFEE33FECD33CDCC8B
:1003390033CCC58233C5829BED9AEC99E58298400E
:100349000CF582EE9BFEED9AFDEC99FC0FD5F0D6EB
:10035900E4CEFBE4CDFAE4CCF9A88222B800C1B915
:100369000059BA002DEC8BF084CFCECDFCE5F0CB53
:10037900F97818EF2FFFEE33FEED33FDEC33FCEB8C
:1003890033FB10D703994004EB99FB0FD8E5E4F947
:10039900FA227818EF2FFFEE33FEED33FDEC33FC34
:1003A900C933C910D7059BE99A4007EC9BFCE99A28
:1003B900F90FD8E0E4C9FAE4CCFB2275F010EF2F6D
:1003C900FFEE33FEED33FDCC33CCC833C810D7076D
:1003D9009BEC9AE899400AED9BFDEC9AFCE899F8A8
:0E03E9000FD5F0DAE4CDFBE4CCFAE4C8F9223B
:0E03F700C3E49FFFE49EFEE49DFDE49CFC2217
:10040500E8600FECC313FCED13FDEE13FEEF13FFD5
:03041500D8F122F9
:0C041800ECF0A3EDF0A3EEF0A3EFF02257
:10042400A8828583F0D083D08212043B12043B124D
:10043400043B12043BE473E493A3C583C5F0C58372
:10044400C8C582C8F0A3C583C5F0C583C8C582C822
:010454002285
:10045500BB010789828A830204245005E9F8020456
:0A0465006FBBFE05E9F802048822CF
:10046F00D083D082E493F608740193F60874029354
:09047F00F608740393F67404738B
:10048800D083D082E493F208740193F20874029343
:09049800F208740393F27404737A
:00000001FF
