:030000000232B613
:1032B60078FFE4F6D8FD9000007F007E04E4F0A3DA
:0A32C600DFFCDEFA75812202330BF3
:072953004401C5FFFFFFFF77
:03008B0002473DEC
:10473D00C0E0C0F0C083C082C0D075D000C000C042
:10474D0001C002C003C004C005C006C00712200B83
:10475D00D007D006D005D004D003D002D001D000B0
:0B476D00D0D0D082D083D0F0D0E0325A
:104681001257ED12580B1257FF1257E11249CD1272
:1046910056D3124AB7EF7004FF12579B1257A1EF7E
:1046A10064617008438702124C738003123643120F
:0F46B10044F81257A1EF646070E2124E9F80DD53
:011F300002AE
:011F3100208F
:011F320000AE
:011F3300FFAE
:011F3400FDAF
:011F3500F8B3
:011F370001A8
:011F38001098
:011F3900089F
:011F3A0001A5
:011F3B0000A5
:011F3C00FDA7
:011F3D00F8AB
:011F3E0000A2
:011F3F0000A1
:011F40000F91
:011F4100029D
:011F4200207E
:011F4300009D
:011F44003F5D
:011F45003F5C
:011F46003F5B
:011F47000198
:011F48000098
:011F49001F78
:011F4A004056
:011F4B000095
:011F50000090
:011F5100008F
:011F5200008E
:011F5300008D
:011F5400008C
:011F5500008B
:011F5600008A
:011F57000089
:011F58000088
:011F59000087
:011F5A000086
:011F5B000085
:011F5C000084
:011F5D000083
:011F5E000082
:011F5F000081
:101F60000A0A0A0A0A0A0A0A0A0A0A0A0A0A0A0AD1
:101F700019191919191919191919191919191919D1
:101F8000CDCDCDCDCDCDCDCDCDCDCDCDCDCDCDCD81
:081F9000CDCDCDCDCDCDCDCDE1
:101FA000FFFFFFFFFFFFFFFFFFFFFFFFFFFFFFFF41
:101FB000FFFFFFFFFFFFFFFFFFFFFFFFFFFFFFFF31
:101FC000FFFFFFFFFFFFFFFFFFFFFFFFFFFFFFFF21
:101FD0000000000000000000000000000000000001
:101FE00000000000000000000000000000000000F1
:101FF00000000000000000000000000000000000E1
:0500760012007BD2A383
:0F007B00E4FFEFC3940A7480948050030F80F366
:01008A002253
:1053D50043DB0143DA0143D70843D608D2B0D2A351
:0153E50022A5
:0A4F5A00EBF0A3EAF0A3E9F0AE07C4
:0F4F6400D2B0D2A312007BC2B012007BC2A32234
:0A56AC00C2A3C2B0120076D2B022F1
:02489A00AE0767
:10489C00E4FDC2A3D2B0FCECC394087480948050A5
:1048AC0012120076ED25E0FD30B0034401FDC2A3E9
:1048BC000C80E4EE6004D2B08002C2B0120076C26A
:0348CC00A3AF0592
:0148CF0022C6
:02490500AE07FB
:10490700C2A3E4FDEDC39408748094805016EE3082
:10491700E704D2B08002C2B0EE25E0FE120076C2F4
:10492700A30D80E0D2B0120076A2B0E433FFC2A399
:01493700225D
:033E3800900012E5
:103E3B00124F5AEE4401FF124905E4900016F09020
:103E4B000015E014FFA3E0C39F5025E4FF12489A2E
:103E5B00900012E0FBA3E0FAA3E0F9900016E0F566
:103E6B0082758300EF12063A900016E004F080CFC3
:103E7B007F0112489A900012E0FBA3E0FAA3E0F94D
:103E8B00900016E0F582758300EF12063A0256ACED
:034778009000129C
:10477B00124F5AAF06124905E4FC900015E0FFEC0E
:10478B00C39F501A900012E0FBA3E0FAA3E0F98C50
:10479B00827583001205FBFF1249050C80DC90002B
:0747AB0016E060031256AC9A
:0147B20022E4
:104D360043A84A758922759202758C38758A38752A
:0F4D46008D59758B5975954175941A43D928224B
:0357CC00D28C225A
:0357CF00C28C2267
:104EBC009001EDEEF0A3EFF0D28ED39001EEE094E2
:0C4ECC00009001EDE0940050F1C28E2235
:0357D200D2DD2203
:03000B000247B3F6
:1047B300C0E0C0F0C083C082C0D075D000C000C0CC
:1047C30001C002C003C004C005C006C00712348381
:1047D300D007D006D005D004D003D002D001D0003A
:0B47E300D0D0D082D083D0F0D0E032E4
:03001B00020026BA
:10002600C0E0C083C082C0D0D39001EEE0940090BF
:1000360001EDE09400400CA3E024FFF09001EDE018
:0C00460034FFF0D0D0D082D083D0E03264
:0300730002457EC5
:10457E00C0E0C0F0C083C082C0D075D000C000C003
:10458E0001C002C003C004C005C006C00775950077
:10459E007594381227F8D007D006D005D004D00372
:1045AE00D002D001D000D0D0D082D083D0F0D0E0D5
:0145BE0032CA
:02295A00C110AA
:1048D00075BA0375AAF743919043878043A89075F2
:1048E0009850C299E4FFEFC3941474809480500FE1
:1048F000747C2FF582E43401F583E4F00F80E7E463
:04490000900190F0A2
:014904002290
:041F4C005398EF2295
:030023000245BFD4
:1045BF00C0E0C083C082C0D075D000C00730982241
:1045CF00C298900190E0C39414748094805017E0C7
:1045DF00FF04F0747C2FF582E43401F583E599F044
:1045EF008004C210C299D007D0D0D082D083D0E03F
:0145FF003289
:08000300D2108F992010FD229C
:1053E600C2AF75F75575F7AA75F75A438F01D2AF55
:0153F6002294
:1053F700C2AF75F75575F7AA75F75A538FFED2AF37
:015407002282
:104FF000AB07AA061253E6EAF5E1AF038FE2AF056D
:085000008FE3E4F5E40253F72D
:105357001253E6E4F5E18FE2AF058FE375E403024C
:0253670053F7FA
:105490001253E6E4F5E18FE275E404AFE30253F75B
:081F98008F828E83E493FF2287
:07295C004201EF0000C11170
:065729008FAC43AC8022AE
:0B56960075AB4075AF1FD2BAD2AF2237
:10540800E4AFADEF75F010A4FFAEF0ADAEEF4DFF19
:015418002271
:0300530002496BF4
:10496B00C0E0C0F0C083C082C0D075D000C005C00D
:10497B0006C0071254089001EFEEF0A3EFF0D2112E
:10498B00D007D006D005D0D0D082D083D0F0D0E0E5
:01499B0032E9
:10531E007F061257293011FDC2119001EFE0FEA356
:03532E00E0FF227B
:0556DC00900011EFF049
:0356E10002531E53
:0839B80090000AEFF0A3EDF00E
:1039C000A312081600000000E4900010F090000B15
:1039D000E0FF900010E0C39F503A90000CE0F8A385
:1039E000E0F9A3E0FAA3E0FB90000AE0FF1256DC46
:1039F000E4FCFDEB2FFFEA3EFEED39FDEC38FC90D8
:103A0000000C12080A7F057E00124EBC900010E0E8
:103A100004F080B990000BE0FBE4FAF9F8A3E0FCB5
:0C3A2000A3E0FDA3E0FEA3E0FF02072BE3
:103BDA007F057E00124EBC7D0A7F401239B8AD07C0
:103BEA00AC06E412031A7B337A337953783A12011A
:103BFA009690000612080A7F7B7E147D0E7C409008
:103C0A000006E0F8A3E0F9A3E0FAA3E0FB12029CA5
:103C1A0050037F02227F5C7E8F7D167C40900006D7
:103C2A00E0F8A3E0F9A3E0FAA3E0FB12029C500338
:053C3A007F01227F0064
:013C3F002262
:072963004401C9FFFFFFFF63
:10005600124D361248D01253D553D5F743D4084320
:0D006600D51053D4EFD29390030DE4F02297
:10536900C293121F4C12543B12542A90030D74011C
:02537900F02220
:1054190090030DE4F012008E1250201248D0D2935E
:015429002260
:0300130002005296
:01005200327B
:1053310043D74053D6BFC2A6D28A43E50843EE0401
:03534100D2AA22CB
:10296A004101650041017B00410166005401670095
:10297A00000000000000000000000000000000004D
:03298A000000004A
:1050200053D5BF43D44053D3FE43D20143D302539D
:07503000D2FDC296C28022EE
:10542A0043D54053D4BF43D30153D2FEC296C28060
:01543A00224F
:053A2C009000A0EFF086
:103A3100E4A3F0900165E0701730811404F0900068
:103A4100A0E090017BF0E4900166F01257CC804831
:103A5100E49000A1F09000A1E0FFFD7C00C394146C
:103A610074809480501574672FF582E43401F583D6
:103A7100E060089000A1E004F080DAC3ED9414EC5A
:103A81006480948050129000A0E0FFA3E02467F5C9
:0A3A910082E43401F583EFF07F01B9
:013A9B002208
:1042EF00E4FF900165E070032081451257CFE4FF92
:1042FF00EFC3941474809480500F74672FF582E489
:10430F003401F583E4F00F80E7900166E0C3940475
:10431F0074809480E490017B400CF09001657403ED
:10432F00F0E4A3F08007F09001657403F01257CC0E
:01433F00225B
:06572F00A281E433FF2219
:06573500900165E0FF2277
:06573B0090017BE0FF225B
:1033EA00900165E0FD7C006401704CA3E0FF7E0063
:1033FA007006D296C2808017EF64024E7004C2969D
:10340A00800DC3EF9404EE648094804002B28090F1
:10341A000166E004F090017BE025E0FFE433FEEF73
:10342A002406FFE43EFE900166E0C39FEE6480F846
:10343A0074809840438035ED64034C703B9001667C
:10344A00E0FF7E007004C2808012EF64014E7004B7
:10345A00D2968008EF64034E7002C296900166E02D
:10346A0004F0E0C3940474809480400CE4F0C296A3
:09347A00C2809001657402F02289
:10348300900165E064026003023517208103023571
:1034930017900167E0700D90017BF01257CFE49015
:0434A3000165F022AD
:1034A700E490009CF090016504F0900167E09001C2
:1034B7007BF0E490009CF090009CE0FF3395E0FEE9
:1034C700C3EF9413EE64809480502B74682FF582B9
:1034D70074013EF583E0FF601D90009CE0FD33958D
:1034E700E0FC74672DF58274013CF583EFF09000E2
:1034F7009CE004F080C190009CE0FF3395E0FE74EF
:0F350700672FF58274013EF583E4F0900166F0C2
:05351600221233EA223D
:0258290000007D
:0450BF007B017D02F2
:1050C300900015EDF0A37401F07F601247787F0123
:0150D30022BA
:0E384B0090019AEBF0A3EAF0A3E9F0A3EDF0F0
:10385900E4FFFE9001A1E0FDC3EF9D7480F86E982E
:10386900501A90019EE0FBA3E0FAA3E0F98F828E43
:1038790083E412063A0FBF00010E80D790019DE044
:10388900FFD3940074809480401A90019AE0FBA3BE
:10389900E0FAA3E0F9900015EFF0E4A3F07F6012DD
:1038A9004778800090019EE0FBA3E0FAA3E0F9A32A
:0C38B900E0900015F07F60123E387F01A7
:0138C50022E0
:104ED800900009744CF0A3746FF07A0079091250AD
:094EE800BFEF70037F01227F007F
:014EF100229E
:104EF200900006744CF0A37463F07A0079061250A5
:094F0200BFEF70037F01227F0064
:014F0B002283
:104D7400900009746DF0A3746FF07B017A007909D7
:0D4D84007D021250C3EF70037F01227F00FB
:014D910022FF
:104D9200900009746DF0A37463F07B017A007909C5
:0D4DA2007D021250C3EF70037F01227F00DD
:014DAF0022E1
:104DB0009000097465F0A3746FF07B017A007909A3
:0D4DC0007D021250C3EF70037F01227F00BF
:014DCD0022C3
:104DCE009000097465F0A37463F07B017A00790991
:0D4DDE007D021250C3EF70037F01227F00A1
:014DEB0022A5
:104DEC009000087457F0A3746FF07B017A00790877
:0D4DFC007D021250C3EF70037F01227F0083
:014E09002286
:104E0A009000097457F0A37463F07B017A00790962
:0D4E1A007D021250C3EF70037F01227F0064
:014E27002268
:103FBD0078CF7C017D017BFF7A5879297E007F02C5
:103FCD001205BC9001CD7453F0A3746FF07B017A90
:103FDD000179CD7D021250C37F0A7E00124EBC9036
:103FED00019E7401F0A37401F0A374CFF0A37402C9
:103FFD00F07B017A0179CDE4FD12384B9001CFE0D1
:0D400D00B44D08A3E0B44F037F01227F00F3
:01401A002283
:104E28009001F17453F0A37463F07B017A0179F176
:0D4E38007D021250C3EF70037F01227F0046
:014E4500224A
:1050D4009001F37467F0A3746FF07B017A0179F3A4
:0550E4007D020250C333
:0757140043D30853D2F72232
:0D008E0043D74043D64043D72043D620221D
:10543B0043D74053D6BF43D72053D6DFC2A6C2A50E
:01544B00223E
:06574100A283E433FF2205
:07298D004401D1FFFFFFFF31
:104CD60090FFEA741CF0D29590FF1C7401F0A3E4D7
:104CE600F0A3F090FF207423F090FF1F7490F02241
:07571B0090FF1DE04FF0229A
:0C56660090FF1DE0FEEFF4FFEE5FF0226D
:1050370090FF1DE05F6009E0FEEFF4FFEE5FF022F6
:0750470090FF1DE04FF02275
:04299400410209FFF4
:03009B00024D55BE
:104D5500C0E0C0F0C083C082C0D075D008C2AF1219
:0F4D65002011D2AFD0D0D082D083D0F0D0E032A6
:1035B10012200885BB2085F421E520700BE52170E0
:1035C1000790020974FFF022900209E0F470723052
:1035D1000002F0223002079002097401F022300348
:1035E100079002097402F022300407900209740363
:1035F100F0223005079002097404F022300607908A
:1036010002097405F0223007079002097406F022BE
:10361100300B079002097407F022300C0790020961
:103621007408F022300D079002097409F022300E5F
:1036310007900209740AF022300F06900209740BF8
:02364100F02275
:0357D500022005AA
:0F54C0001235B1900209E0F47002FF227F012241
:091F27001235B1900209E0FF221D
:0C567200900209E0F47002FF227F012288
:06574700900209E0FF22C0
:0457C80000000000DD
:072998004401D5FFFFFFFF22
:0E38C600900009EBF0A3EAF0A3E9F0A3EDF007
:1038D400E4FFFE900010E0FDC3EF9D7480F86E9845
:1038E400501A90000DE0FBA3E0FAA3E0F98F828E5A
:1038F40083E412063A0FBF00010E80D790000CE05B
:10390400FFD3940074809480401A900009E0FBA3D4
:10391400E0FAA3E0F9900015EFF0E4A3F07F601261
:103924004778800090000DE0FBA3E0FAA3E0F9A340
:0C393400E0900015F07F60123E387F002C
:013940002264
:0450E9007B017D02C8
:1050ED00900015EDF0A37401F07F601247787F00FA
:0150FD002290
:104F0C009000017469F0A37464F07A007901125076
:094F1C00E9EF70037F01227F0020
:014F25002269
:10418D0078067C007D017BFF7A5779C87E007F021F
:10419D001205BC9000047449F0A37464F07A0079A0
:1041AD00041250E97F0A7E00124EBC90000D74017E
:1041BD00F0A37400F0A37406F0A37402F07B017AEF
:1041CD00007904E4FD1238C6900006E0B44908A356
:0941DD00E0B44F037F01227F00D2
:0141E60022B6
:104E4600900007746BF0A37464F07B017A00790715
:0D4E56007D021250EDEF70037F01227F00FE
:014E6300222C
:1037530078077C007D017BFF7A5779CA7E007F0260
:103763001205BC900005744BF0A37464F07B017ADE
:103773000079057D021250ED7F0A7E00124EBC9047
:10378300000D7401F0A37400F0A37407F0A3740296
:10379300F07B017A007905E4FD1238C6900007E05A
:1037A300FEB44B08A3E0B44F037F0122EEB44B0AEF
:1037B300900008E0B445037F0222900007E0B44B79
:0B37C30008A3E0B44B037F03227F004B
:0137CE0022D8
:1050FE009000097477F0A37464F07B017A0079094B
:05510E007D020250EDDE
:105113009001F57473F0A37464F07B017A0179F55F
:055123007D020250EDC9
:105128009001F77470F0A37464F07B017A0179F749
:055138007D020250EDB4
:10513D009001F97450F0A37464F07B017A0179F950
:05514D007D020250ED9F
:105152009001FB7466F0A37464F07B017A0179FB21
:055162007D020250ED8A
:105167009001FD7446F0A37464F07B017A0179FD28
:055177007D020250ED75
:10517C00900009744FF0A37464F07B017A007909F4
:05518C007D020250ED60
:10519100900009746FF0A37464F07B017A007909BF
:0551A1007D020250ED4B
:1051A6009001FF7472F0A37464F07B017A0179FFB9
:0551B6007D020250ED36
:1051BB009000097478F0A37464F07B017A0079098C
:0551CB007D020250ED21
:1051D000900201747AF0A37464F07B017A02790181
:0551E0007D020250ED0C
:1052F6009002037463F0A304F07B017A0279037DC4
:04530600020250ED62
:1051E5009002057476F0A37464F07B017A02790568
:0551F5007D020250EDF7
:1051FA009000087474F0A37464F07B017A00790853
:05520A007D020250EDE1
:10520F009000087454F0A37464F07B017A0079085D
:05521F007D020250EDCC
:105224009002077452F0A37464F07B017A02790748
:055234007D020250EDB7
:10523900900006746CF0A37464F07B017A0079061F
:055249007D020250EDA2
:10524E009000097441F0A37464F07B017A0079092F
:05525E007D020250ED8D
:105263009000097461F0A37464F07B017A007909FA
:055273007D020250ED78
:105278009000087442F0A37464F07B017A00790806
:055288007D020250ED63
:0B299F00440133FFFFFFFF4101370040
:105093007818900133E0FCA3E0FDA3E0FEA3E0FF5A
:0350A3001207CB26
:0350A60002000302
:0E44B400EFF0ECA3F0A3EDF0A3EAF0A3EBF021
:1044C2007FEF1250A67F011250A61250937810125D
:1044D2005095900133E0FCA3E0FDA3E0FEA3E0FFD2
:1044E20078081207CB1250A6900133A3A3A3E0FFD2
:0644F2001250A67F00221B
:104426007FEF1250A67F011250A6125093900133CF
:10443600E0FCA3E0FDA3E0FEA3E0FF78101207CBAB
:104446001250A6900133E0FCA3E0FDA3E0FEA3E03A
:10445600FF78081207CB1250A6900133A3A3A3E05E
:07446600FF1250A67F0022A7
:0357D8000250A6D6
:044E82007F037E002C
:104E8600900015EEF0A3EFF0900015E0FF1250A68B
:094E9600900015A3E0FF0250A6F4
:0357DB000250A6D3
:10453C00FFE433FE7C00EF2DFFEC3EFEA3E02FFDED
:10454C00EC3EA3FCE0FAA3E0FBEA7E002DFFEE3C80
:09455C00FE7C00EF2BFFEC3EFE9B
:10456500900015EEF0A3EFF0900015E0FF1250A6B5
:09457500900015A3E0FF0250A61E
:062BBB007D037FE87E03AC
:0B2BC100900015EEF0A3EFF0A3EDF084
:102BCC00E4A3F0A3F090001574FFF5F01206A445F1
:102BDC00F07003022CD27F017E00124EBC900017C5
:102BEC00E02409FFE433FE900190E0C39FEE648083
:102BFC00F874809840CFE4900018F0900190E0FFBA
:102C0C00900018E0FEC39F5017747C2EF582E434BC
:102C1C0001F583E064EF6008900018E004F080DBBD
:102C2C00900018E0FF247CF582E43401F583E06425
:102C3C00EF7092747D2FF582E43401F583E064012A
:102C4C007083900018E0FD2482F582E43401F58352
:102C5C00E064076003022BD174832DF582E4340108
:102C6C00F583E0FE74842DF582E43401F583E07C79
:102C7C00002400FFEC3EFE900017E06F7001EE6048
:102C8C0003022BD1900190E0FF900018E0FEC39F4F
:102C9C005029747C2EF582E43401F583E0FF90001A
:102CAC0019E02438F582E43401F583EFF090001933
:102CBC00E004F0900018E004F080C9E4900190F07A
:082CCC00900141E0FF227F01AD
:012CD40022DD
:104CF6001244C27F011257D8124E827F531257DBDD
:104D06007F577E001245657D037FE87E03022BC137
:104B0D00E4900190F01244C2EF640170037FFF2224
:104B1D007F011257D8124E827F011257DB7F057E1F
:084B2D0000124565122BBB22AA
:1047EE00900009EFF01244C2EF640170037FFF22C4
:1047FE007F011257D87F047E00124E867F02125719
:10480E00DB900009E0FF1250A6900009E02407FF9C
:0A481E00E433FE124565122BBB22A5
:104B5B001244C2EF640170037FFF227F011257D80A
:104B6B00124E827F031257DB7F077E001245657D55
:054B7B0005122BBD2214
:0332160090019193
:103219001244B4EF640170037FFF227F011257D873
:103229007F087E00124E867F041257DB900191E0E1
:10323900FF1250A6900192E0FF1250A6900192A3AE
:10324900E0FF1250A6900194E0FF1250A69001945D
:10325900A3E0FF1250A6900192E0FCA3E0FDECFF71
:103269007E00900191E0240DFBE433CB2FFFEE3B70
:10327900FE7C00EF2DFDEC3E90019412454F7D0739
:10328900122BBD900199EFF0900142E0FEA3E07C82
:10329900002400FFEC3EF9900196E0FBA3E0FAA3BD
:0C32A900E0C98FF01206D0900199E0FF00
:0132B50022F6
:104BA4001244C2EF640170037FFF227F011257D8C1
:104BB400124E827F051257DB7F097E001245651273
:034BC4002BBB22E6
:103C400090000BEFF0A3ECF0A3EDF01244C2EF6490
:103C50000170037FFF227F011257D87F067E00127A
:103C60004E867F061257DB90000BE0FF1250A690A5
:103C7000000CE0FF1250A690000CA3E0FF1250A62B
:103C800090000CE0FCA3E0FDECFF7E0090000BE058
:103C9000240DFBE433CB2FFFEE3BFE7C00EF2D1217
:063CA0004561122BBB225E
:103CA600900008EEF0A3EFF0A3ECF0A3EDF01244C1
:103CB600C2EF640170037FFF227F011257D87F078E
:103CC6007E00124E867F0C1257DB900008E0FF1232
:103CD60050A6900008A3E0FF1250A690000AE0FF4D
:103CE6001250A690000AA3E0FF1250A6900008E02A
:103CF600FCA3E0FDEC2414FFE433FE7C00EF2D1260
:063D0600454B122BBB220D
:0331750090000CBB
:103178001244B4EF640170037FFF227F011257D815
:103188007F087E00124E867F1B1257DB90000CE0F2
:10319800FF1250A690000DE0FF1250A690000DA35C
:1031A800E0FF1250A690000FE0FF1250A690000F0B
:1031B800A3E0FF1250A690000DE0FCA3E0FDECFF99
:1031C8007E0090000CE02424FBE433CB2FFFEE3B81
:1031D800FE7C00EF2DFDEC3EFC90000F1245507D6B
:1031E80007122BBD900014EFF0900142E0FEA3E01F
:1031F8007C002400FFEC3EF9900011E0FBA3E0FA0C
:0D320800A3E0C98FF01206D0900014E0FF83
:013215002296
:104BC7001244C2EF640170037FFF227F011257D89E
:104BD700124E827F0D1257DB7F117E001245651240
:034BE7002BBB22C3
:0B4241009001D9EBF0A3EAF0A3E9F034
:10424C001244C2EF640170037FFF227F011257D822
:10425C00124E827F1D1257DB7F217E001245657D39
:10426C0005122BBD9001DCEFF0900142E0FEA3E0C3
:10427C007C002400FFEC3EF99001D9E0FBA3E0FAAE
:0D428C00A3E0C98FF01206D09001DCE0FF26
:014299002202
:104079009001B1EEF0EF1244B7EF640170037FFFD6
:10408900227F011257D87F087E00124E867F311297
:1040990057DB9001B1E0FF1250A69001B1A3E0FFF8
:1040A9001250A69001B3E0FF1250A69001B4E0FFB0
:1040B9001250A69001B4A3E0FF1250A69001B1E0FE
:0D40C900FCA3E0FDEC243A12453C7F0022F0
:10401B009001B6EEF0A3EF1244B8EF640170037F8A
:10402B00FF227F011257D87F087E00124E867F3207
:10403B001257DB9001B8E0FF1250A69001B6E0FFDB
:10404B001250A69001B6A3E0FF1250A69001B9E062
:10405B00FF1250A69001B9A3E0FF1250A69001B633
:0E406B00E0FCA3E0FDEC243B12453C7F00226C
:104AE300120847000000001244C2EF640170037F04
:104AF300FF227F011257D8124E827F531257DB7F5A
:0A4B0300577E00124565122BBB22FD
:0357DE007F002227
:104C0D001244C2EF640170037FFF227F011257D857
:104C1D00124E827F601257DB7F647E001245657FE6
:024C2D00002263
:052DB000900008EFF0A7
:102DB500E490000BF0900137E06F7003022E87124C
:102DC50044C2EF64017003022E877F011257D87F3A
:102DD500077E00124E867F411257DB900008E060A7
:102DE5006824FE60261460422402707B7F01125025
:102DF500A67F011250A6E4FF1250A67F501250A6DE
:102E0500900009E4F0A3749BF0805C7F011250A64A
:102E15007F021250A67F021250A6E4FF1250A69020
:102E25000009E4F0A3744EF0803D7F011250A67FA7
:102E3500041250A67F041250A6E4FF1250A690007B
:102E450009E4F0A37452F0801E7F041250A6E4FF3B
:102E55001250A6E4FF1250A67FC81250A690000992
:102E65007401F0A37415F0900009E0FEA3E0FF12D1
:102E75004565122BBB90000BEFF0900008E0900128
:022E850037F024
:012E87002228
:06574D00900137E0FF228D
:0D460000900190E0D39400748094804031CC
:10460D00E4900007F0900190E0FF900007E0FEC3FA
:10461D009F501E747C2EF582E43401F583E06455C1
:10462D007007900190F07F0122900007E004F08068
:01463D00D4A8
:03463E007F0022D8
:0729AA004401DDFFFFFFFF08
:0D55620043D58053D47F43D50453D4FB229E
:06575300A297E433FF22DF
:0956CA003F3F3F3F3F3F3F3F00DF
:0E482800900096EFF0A3EBF0A3EAF0A3E9F006
:10483600E4FFEFC39D5021900097E0FBA3E0FAA3AD
:10484600E0F98F827583001205FBFE900096E0B5B5
:0A48560006037F01220F80DA7F00C5
:014860002235
:0730C7007B01E0FCA3E0FD2A
:1030CE0090008EEBF0A3EAF0A3E9F0A3ECF0A3EDF1
:0130DE00F001
:1030DF00E4A3F0A3F09000937413F0900093E0FD3D
:0B30EF007C00C3940A74809480407A37
:1030FA00900091E0FEA3E0FF12066EAF05900095E6
:10310A00EFF0D39409748094804004E024F6F090A0
:10311A000095E0FF900094E0FD90008EE0FBA3E0B4
:10312A00FAA3E0F9124828EF6014900095E004F041
:10313A00E0D394097480948040D5E4F080D1900063
:10314A0095E0FF90008EE0FBA3E0FAA3E0F990007F
:10315A0094E0F582758300EF12063A900094E00439
:01316A00F074
:09316B00900093E014F00230EA38
:013174002238
:100BD30090002CE0F9A3E0FAA3E0900057C9F0A33A
:100BE300EAF0A3E9F0A37401F0A37400F0A3743551
:0C0BF300F0900029E0FBA3E0FAA3E0F979
:0B0BFF00900054EBF0A3EAF0A3E9F033
:100C0A009000061205FBFF3395E0FEEF24D0FFEEBD
:100C1A0034FFFE7C007D0A12065CC006C007900005
:100C2A00051205FBFF3395E0FEEF24D0FFEE34FFFB
:100C3A00FE7D6412065CD0E02FFFD0E03EFE9000FD
:100C4A00071205FBFD3395E0FCED24D0FDEC34FFE3
:100C5A00CD2FFFED3E90005DF0A3EFF0E490006928
:100C6A00F0A3F0900057E0FBA3E0FAA3E0F91252D8
:100C7A00E1900074EEF0A3EFF0E4900080F0A3F0AE
:100C8A007A00798290005D1230C7E4900069F0A37F
:100C9A00F0900069E0FEA3E0FFC39405EE6480943F
:030CAA0080506314
:100CAD00900054E0FBA3E0FAA3E0F98F828E83124B
:100CBD0005FBFF3395E0FEEF24D0FFEE34FF9000EF
:100CCD008CF0A3EFF090008CE0FEA3E02482F5827F
:100CDD0074003EF583E0FD90006AE025E0FF900092
:100CED0069E033FE745F2FF58274003EF583E4F006
:030CFD00A3EDF074
:100D000090006AE004F07093900069E004F0808B3A
:100D10007E007F097D007B017A00796B120B2090A9
:100D20000074E07004A3E064087016786B7C007DAA
:100D300001900057E0FBA3E0FAA3E0F91209598003
:100D400079D3900075E09408900074E064809480FA
:100D50004027900057E0F9A3E0FAA3E0900091C982
:100D6000F0A3EAF0A3E9F0A3E4F0A37408F07B0198
:100D70007A00796B123B728041786B7C007D019028
:100D80000057E0FBA3E0FAA3E0F9120959900091A3
:100D900074FFF0A37456F0A374CAF0900074E0FEE0
:100DA000A3E0FFC374089F900095F0E49E90009428
:100DB000F07B017A00796B122E8890006CE0FB3397
:100DC00095E0FA90006BE0FF3395E0FEC3EF9BFFE8
:100DD000EE9AFE90006DE0F9FD3395E0FCEF2DFFFB
:100DE000EE3CFEA3E0FD3395E0FCC3EF9DFFEE9CDF
:100DF000FEA3E0FD3395E0FCEF2DFFEE3CFEA3E00B
:100E0000FD3395E0FCC3EF9DFFEE9CFEA3E0FD33B8
:100E100095E0FCEF2DFFEE3CFEA3E0FD3395E0FCFA
:100E2000C3EF9DFFEE9C900076F0A3EFF0C374300B
:100E30009BFFE49AFEE9FD3395E0FCEF2DFFEE3CCD
:100E4000FE90006EE0F9FB3395E0FAC3EF9BFFEEF6
:100E50009AFEA3E0FB3395E0FAEF2BFFEE3AFEA3F8
:100E6000E0FB3395E0FAC3EF9BFFEE9AFEA3E0FBB5
:100E70003395E0FAEF2BFFEE3AFEA3E0FB3395E06B
:100E8000FAC3EF9BFFEE9A900078F0A3EFF0E9FF32
:100E90003395E0FEC3ED9FFFEC9EFE90006FE0FDFA
:100EA0003395E0FCEF2DFFEE3CFEA3E0FB3395E035
:100EB000FAC3EF9BFFEE9AFEA3E0FB3395E0FAEF57
:100EC0002BFFEE3AFEA3E0FB3395E0FAC3EF9BFF66
:100ED000EE9A90007AF0A3EFF0E9FF3395E0FEC3BD
:100EE00074309FCFE49ECF2DCF3CFE900070E0FD8C
:100EF0003395E0FCC3EF9DFFEE9CFEA3E0F9FB33CE
:100F000095E0FAEF2BFFEE3AFEA3E0FB3395E0FA13
:100F1000C3EF9BFFEE9A90007CF0A3EFF090006F80
:100F2000E0FF3395E0FEC3EF9DFFEE9CFEE9FD334D
:100F300095E0FCEF2DFFEE3CFE900072E0FD339556
:100F4000E0FCC3EF9DFFEE9C90007EF0A3EFF0E489
:100F5000900069F0A3F0900069E0FAA3E0FB25E0BF
:100F6000FFEA33FE74762FF58274003EF583E0FCD1
:100F7000A3E0FD745F2FF58274003EF583E0FEA3CD
:100F8000E0C39DFFEE9CCF2464CF3400FE7C007D47
:100F90000A12066EEB25E0FFEA33FE745F2FF5823E
:100FA00074003EF583ECF0A3EDF090006AE004F0ED
:100FB0007006900069E004F0900069E07004A3E01E
:100FC00064057092E4900069F0A3F0900069E0FE7F
:100FD000A3E0FFC39405EE64809480400302109563
:100FE0007C007D0212066EED4C7027E025E0FF903C
:100FF0000069E033FE745F2FF58274003EF583A331
:10100000E025E0FD0582D5820215831582E033FCE0
:10101000802890006AE025E0FF900069E033FE74CC
:101020005F2FF58274003EF583E0FEA3E0FF7C00B5
:101030007D0312065CAC06AD07EC12031AC004C0B7
:1010400005C006C00790009212081640000000D0AC
:1010500007D006D005D004121CD8C004C005C006B5
:10106000C007900080E0FCA3E0FDEC12031AD0035F
:10107000D002D001D0001200A5120353900080EEE0
:10108000F0A3EFF090006AE004F07006900069E0D1
:1010900004F0020FCB900080E0FEA3E0FF90005D23
:1010A000E06E7003A3E06F600302116C90005FA319
:1010B000E0FF90005AE0FBA3E0FAA3E0F9EF12068C
:1010C00028900061A3E0FF90005AE0FBA3E0FAA3A0
:1010D000E0F9900001EF12063A900063A3E090005F
:1010E0000212063A900065A3E090000312063A90BF
:1010F0000067A3E090000412063A900054E0FBA3BE
:10110000E0FAA3E0F99000051205FB24D0FF90005F
:101110005AE0FBA3E0FAA3E0F9900005EF12063ACB
:10112000900054E0FBA3E0FAA3E0F990000612055A
:10113000FB24D0FF90005AE0FBA3E0FAA3E0F99073
:101140000006EF12063A900054E0FBA3E0FAA3E099
:10115000F99000071205FB24D0FF90005AE0FBA392
:10116000E0FAA3E0F9900007EF02063AE490006984
:10117000F0A3F0900069E0FEA3E0FFC39408EE64E2
:10118000809480502490005AE0FBA3E0FAA3E0F999
:101190008F828E8374FF12063A90006AE004F0702A
:0911A000D2900069E004F080CA5D
:0111A9002223
:0B176C00900054EBF0A3EAF0A3E9F0BA
:101777009000061205FB75F00AA4FDACF090000579
:101787001205FB75F064A42DFFE5F03CFE90000701
:101797001205FB7C002FFFEC3E90005DF0A3EFF0FD
:1017A700900057E0FBA3E0FAA3E0F91252E19000A2
:1017B70072EEF0A3EFF0E4A3F0A3F0900080F0A3A3
:1017C700F07A00798290005D1230C7E4900074F0DF
:1017D700A3F0900074E0FEA3E0FFC39405EE6480DD
:0417E7009480505941
:1017EB00900054E0FBA3E0FAA3E0F98F828E831202
:1017FB0005FBFF90008CE4F0A3EFF090008CE0FE73
:10180B00A3E02482F58274003EF583E0FD90007521
:10181B00E025E0FF900074E033FE745F2FF58274D7
:09182B00003EF583E4F0A3EDF0AA
:10183400900075E004F0709D900074E004F08095D1
:101844007E007F097D007B017A007969120B20906C
:101854000072E07004A3E06408701678697C007D6F
:1018640001900057E0FBA3E0FAA3E0F912095980C4
:1018740079D3900073E09408900072E064809480BF
:101884004027900057E0F9A3E0FAA3E0900091C943
:10189400F0A3EAF0A3E9F0A3E4F0A37408F07B0159
:1018A4007A007969123B72804178697C007D0190ED
:1018B4000057E0FBA3E0FAA3E0F912095990009164
:1018C40074FFF0A37456F0A374CAF0900072E0FEA3
:1018D400A3E0FFC374089F900095F0E49E900094E9
:1018E400F07B017A007969122E8890006AE0FB335C
:1018F40095E0FA900069E0FF3395E0FEC3EF9BFFAB
:10190400EE9AFE90006BE0F9FD3395E0FCEF2DFFBD
:10191400EE3CFEA3E0FD3395E0FCC3EF9DFFEE9C9F
:10192400FEA3E0FD3395E0FCEF2DFFEE3CFEA3E0CB
:10193400FD3395E0FCC3EF9DFFEE9CFEA3E0FD3379
:1019440095E0FCEF2DFFEE3CFEA3E0FD3395E0FCBB
:10195400C3EF9DFFEE9C900076F0A3EFF0C37430CC
:101964009BFFE49AFEE9FD3395E0FCEF2DFFEE3C8E
:10197400FE90006CE0F9FB3395E0FAC3EF9BFFEEB9
:101984009AFEA3E0FB3395E0FAEF2BFFEE3AFEA3B9
:10199400E0FB3395E0FAC3EF9BFFEE9AFEA3E0FB76
:1019A4003395E0FAEF2BFFEE3AFEA3E0FB3395E02C
:1019B400FAC3EF9BFFEE9A900078F0A3EFF0E9FFF3
:1019C4003395E0FEC3ED9FFFEC9EFE90006DE0FDBD
:1019D4003395E0FCEF2DFFEE3CFEA3E0FB3395E0F6
:1019E400FAC3EF9BFFEE9AFEA3E0FB3395E0FAEF18
:1019F4002BFFEE3AFEA3E0FB3395E0FAC3EF9BFF27
:101A0400EE9A90007AF0A3EFF0E9FF3395E0FEC37D
:101A140074309FCFE49ECF2DCF3CFE90006EE0FD4E
:101A24003395E0FCC3EF9DFFEE9CFEA3E0F9FB338E
:101A340095E0FAEF2BFFEE3AFEA3E0FB3395E0FAD4
:101A4400C3EF9BFFEE9A90007CF0A3EFF090006D43
:101A5400E0FF3395E0FEC3EF9DFFEE9CFEE9FD330E
:101A640095E0FCEF2DFFEE3CFE900070E0FD339519
:101A7400E0FCC3EF9DFFEE9C90007EF0A3EFF0E44A
:101A8400900074F0A3F0900074E0FAA3E0FB25E06A
:101A9400FFEA33FE74762FF58274003EF583E0FC92
:101AA400A3E0FD745F2FF58274003EF583E0FEA38E
:101AB400E0C39DFFEE9CCF2464CF3400FE7C007D08
:101AC4000A12066EEB25E0FFEA33FE745F2FF582FF
:101AD40074003EF583ECF0A3EDF0900075E004F0A3
:101AE4007006900074E004F0900074E07004A3E0C9
:101AF40064057092E4900074F0A3F0900074E0FE2A
:101B0400A3E0FFC39405EE648094804003021BC9E4
:101B14007C007D0212066EED4C7027E025E0FF90FC
:101B24000074E033FE745F2FF58274003EF583A3E6
:101B3400E025E0FD0582D5820215831582E033FCA1
:101B44008028900075E025E0FF900074E033FE7477
:101B54005F2FF58274003EF583E0FEA3E0FF7C0076
:101B64007D0312065CAC06AD07EC12031AC004C078
:101B740005C006C00790009212081640000000D06D
:101B840007D006D005D004121CD8C004C005C00676
:101B9400C007900080E0FCA3E0FDEC12031AD00320
:101BA400D002D001D0001200A5120353900080EEA1
:101BB400F0A3EFF0900075E004F07006900074E07C
:101BC40004F0021AFF900080E0FEA3E0FF90005DA5
:101BD400E06E7003A3E06F6003021C9A90005FA3A1
:101BE400E0FF90005AE0FBA3E0FAA3E0F9EF12064D
:101BF40028900061A3E0FF90005AE0FBA3E0FAA361
:101C0400E0F9900001EF12063A900063A3E090001F
:101C14000212063A900065A3E090000312063A907F
:101C24000067A3E090000412063A900054E0FBA37E
:101C3400E0FAA3E0F99000051205FBFF90005AE0DA
:101C4400FBA3E0FAA3E0F9900005EF12063A900036
:101C540054E0FBA3E0FAA3E0F99000061205FBFFB1
:101C640090005AE0FBA3E0FAA3E0F9900006EF121B
:101C7400063A900054E0FBA3E0FAA3E0F9900007D1
:101C84001205FBFF90005AE0FBA3E0FAA3E0F990F1
:101C94000007EF02063AE4900074F0A3F090007499
:101CA400E0FEA3E0FFC39408EE6480948050249087
:101CB400005AE0FBA3E0FAA3E0F98F828E8374FF5D
:101CC40012063A900075E004F070D2900074E004BB
:031CD400F080CAD3
:011CD70022EA
:0B200000900029EBF0A3EAF0A3E9F048
:10200B00E490004DF0A3F0A3F0A3F0A3F0A3F0A392
:10201B00F0FE7F08FD7B017A007935120B207E00E4
:10202B007F087D007B017A00793D120B207E007FBB
:10203B00087D007B017A007945120B2090002FE080
:10204B00FBA3E0FAA3E0F9EA494B70030222C912A1
:10205B0005E2F460030221799000011205FBF460A4
:10206B00030221799000021205FBF460030221792F
:10207B009000031205FBF460030221799000041217
:10208B0005FBF460030221799000051205FBF46057
:10209B00030221799000061205FBF46003022179FB
:1020AB009000071205FBF46003022179120BD39009
:1020BB000035E0F9F4700690004DF0FF22900036E9
:1020CB00E0FF7E007C037DE812065CAA06AB07E905
:1020DB00FF7E007C277D1012065CEF2BFDEE3AFC99
:1020EB00A3E075F064A42DFDE5F03CFCA3E075F0D6
:1020FB000AA42DFFE5F03CFEA3E07C002FFFEC3E95
:10210B00FE90004EF0A3EFF0C3900051E09FEE6401
:10211B0080F8900050E06480985050E4900052F0AA
:10212B00A3F0900029E0FBA3E0FAA3E0F9900052A2
:10213B00E0FEA3E0FFF5828E831205FB24D0FD7435
:10214B003D2FF58274003EF583EDF0900053E004D3
:10215B00F07006900052E004F0900052E07004A37F
:10216B00E0640870BD90004D7401F00222C1900034
:10217B002CE0F9A3E0FAA3E0900057C9F0A3EAF032
:10218B00A3E9F0A37401F0A37400F0A37445F090DD
:10219B00002FE0FBA3E0FAA3E0F912176C900045C7
:1021AB00E0F470030222CA120BD3900035E0F470F6
:1021BB00030222CA900036E0FF7E007C037DE8120A
:1021CB00065CAA06AB07900035E0FF7E007C277DFE
:1021DB001012065CEF2BFDEE3AFC900037E075F029
:1021EB0064A42DFDE5F03CFCA3E075F00AA42DFFE3
:1021FB00E5F03CFEA3E07C002FFFEC3E90004EF0A0
:10220B00A3EFF0900046E0FF7E007C037DE8120612
:10221B005CAA06AB07900045E0FF7E007C277D1093
:10222B0012065CEF2BFDEE3AFC900047E075F06474
:10223B00A42DFDE5F03CFCA3E075F00AA42DFFE511
:10224B00F03CFEA3E07C002FFFEC3EFE900050F034
:10225B00A3EFF0D390004FE09FEE6480F890004E18
:10226B00E06480984050E4900052F0A3F090002975
:10227B00E0FBA3E0FAA3E0F9900052E0FEA3E0FF3D
:10228B00F5828E831205FB24D0FD743D2FF58274ED
:10229B00003EF583EDF0900053E004F070069000E3
:1022AB0052E004F0900052E07004A3E0640870BDAB
:1022BB0090004D7401F07E007F087D008009E49052
:1022CB00004DF0FE7F08FD900032E0FBA3E0FAA387
:1022DB00E0F9120B20900032E0FBA3E0FAA3E0F848
:1022EB00AC02AD037B017A00793D7E007F081205BD
:0622FB00BC90004DE0FF65
:0123010022B9
:0429B10041020A00D5
:10528D00124DEC90020A7401F01255897B017DFFDD
:05529D007F0102499CA5
:1054A000124E0AE490020AF01256B67F010254DE50
:0E4A2D0090020AE0602812550BEF6401702021
:104A3B001257A1900002EFF0124E0AE490020AF016
:104A4B00900002E064027F0170030254CF1254DE27
:014A5B002238
:011F36002288
:0657590090020AE0FF22AD
:0429B50041020B00D0
:0357E10002502053
:06575F0090020BEFF022A6
:104F260090009FEFF012576BEF700690020BE06057
:0A4F36000890009FE0FF123A2C22C1
:0856E4001257E47F01024F267A
:0357E4000242EF8F
:0357E70002573531
:0357EA007F00221B
:0729B9004401E1FFFFFFFFF5
:0357ED0002005661
:0357F00002541947
:0357F300025369F5
:0B29C0004401BBFFFFFFFF4101BF000F
:1049CD009000057407F0A374D0F0125714900005F1
:1049DD0074FFF5F01206A445F060147F017E0012FD
:0F49ED004EBC124600EF640170E37F01122DB043
:0149FC002298
:0357F6007F01220E
:05000E00E4FF024B0DB0
:1046C000E4FEEFFD7C00700790000804F08028ED08
:1046D00064014C70089000087402F0801AED6402C6
:1046E0004C70089000087403F0800CED64034C706B
:0F46F000069000087404F0900008E0FF0247EE07
:05001600E4FF024B5B5A
:05001E00E4FF024BA409
:08438F00900008ECF0A3EDF032
:10439700E4FEEFFD7C007005A304F08028ED6401C6
:1043A7004C700890000A7402F0801AED64024C7099
:1043B7000890000A7403F0800CED64034C700690BB
:1043C700000A7404F090000AE0FF900008E0FCA3E4
:0543D700E0FD023C4086
:07572200E4FD0DFC023CA6B2
:0557B900E4FF024BC7F4
:0557BE00E4FF0242417E
:0B3D0C00900008EBF0A3EAF0A3E9F040
:103D1700E4FEEFFD7C007005A304F08028ED64014C
:103D27004C700890000B7402F0801AED64024C701E
:103D37000890000B7403F0800CED64034C70069040
:103D4700000B7404F090000BE0FF900008E0F9A36B
:103D5700E0FAA3E0900011C9F0A3EAF0A3E9F07B31
:093D67002C7A01E4FDFC02317527
:0B3D70009001E5EBF0A3EAF0A3E9F0FE
:103D7B00E4FEEFFD7C007005A304F08028ED6401E8
:103D8B004C70089001E87402F0801AED64024C70DC
:103D9B00089001E87403F0800CED64034C700690FE
:103DAB0001E87404F09001E8E0FF9001E5E0F9A36D
:103DBB00E0FAA3E0900196C9F0A3EAF0A3E9F07B47
:093DCB002C7A01E4FDFC02321621
:0357F900022DB0CE
:0557C300E4FF02574D58
:10500800125741EF700A9001BFE0700904F0FF22C7
:08501800E49001BFF07F0022CB
:0357FC0002574110
:0729CB004400C5FFFFFFFF00
:0E3EFD00900000EFF0A3EBF0A3EAF0A3E9F0D1
:103F0B00E4900006F0A3F0900004E0FEA3E0FFA312
:103F1B00E0FCA3E0FDC39FEC9E5037900000E075E2
:103F2B00F018A42DFF125490900001E0FBA3E0FACF
:103F3B00A3E0F9900006E0FCA3E0F5828C83EF127E
:103F4B00063A900007E004F070BD900006E004F024
:023F5B0080B52F
:013F5D002241
:103A9C00EFF07B017A0079C990002DE4F0A3741249
:033AAC00F0E4FF44
:0E3AAF00900029EFF0A3EBF0A3EAF0A3E9F0FA
:103ABD00E490002FF0A3F090002DE0FEA3E0FFA313
:103ACD00E0FCA3E0FDC39FEC9E502E900029E07515
:103ADD00F018A42DFFA3E0FBA3E0FAA3E0F98D827B
:103AED008C831205FBFD125357900030E004F070EB
:0B3AFD00C690002FE004F080BE7F00A8
:013B0800229A
:102CD5007B017A0079C9900004E4F0A37412F0E452
:102CE500FF123EFD9000C9E0FF64016005EF64023C
:102CF500702CE49000CFF07B017A0079A29000045B
:102D0500F0A3740FF07F01123EFD7B017A0079B1CB
:102D1500900004E4F0A37414F07F02023EFD7E00EF
:102D25007F0F7DFF7B017A0079A2120B20E49000D2
:102D3500A6F09000A27412F0A37434F0A37456F0B8
:102D45009000A67401F09000AC7412F0A37434F0F6
:102D5500A37456F07B017A0079A290002DE4F0A3CC
:102D6500740FF07F01123AAF7E007F147DFF7B0167
:102D75007A0079B1120B207B017A0079B190002D90
:102D8500E4F0A37414F07F02123AAF1257B9900021
:102D9500C97401F0E49000CCF0A3F0A3F0A3F09087
:0B2DA50000D1F09000D0F01246412257
:10464100E4FF9000CA04F0E4A3F09000CFF09000E2
:10465100D2F0EFC3940874809480501074D32FF576
:1046610082E43400F58374FFF00F80E67B017A0069
:1046710079C990002DE4F0A37412F0E4FF023AAF7F
:104132007E007F0F7DFF7B017A0079A2120B207B2C
:10414200017A0079A290002DE4F0A3740FF07F01B0
:10415200123AAF7E007F147DFF7B017A0079B112A3
:104162000B207B017A0079B190002DE4F0A3741446
:10417200F07F02123AAF1257B99000C97401F0E40D
:0B4182009000CCF09000CEF00246410F
:0837CF00E0FBA3E0FAA3E0F91E
:0E37D700900011EBF0A3EAF0A3E9F0A3EDF0EF
:1037E500E4FC900018F0900014E0FDECC39D5055EA
:1037F500900011E0FBA3E0FAA3E0F9AF048F827516
:1038050083001205FB540F900018F00C900014E093
:10381500FFECC39F500D8C827583001205FB540F7E
:10382500FE80027E0F900018E0C454F04EFF900019
:1038350015E0FBA3E475F0011206BAA9F0FAEF1240
:0538450006280C80A123
:01384A00225B
:0B36D200900029EBF0A3EAF0A3E9F060
:1036DD00E4FF90002FF0EFC3940474809480506049
:1036ED00900029E0FBA3E0FAA3E0F98F8275830037
:1036FD001205FBFEF46049EE54F0C4540FFD90002A
:10370D002CE0FBA3E475F0011206BAA9F0FAED1254
:10371D00062890002FE004F0EE540F640F6021EEA8
:10372D00540FFD90002CE0FBA3E475F0011206BAD6
:10373D00A9F0FAED12062890002FE004F00F809604
:05374D0090002FE0FFD9
:013752002254
:0E1E3E00900006EBF0A3EAF0A3E9F0A3EDF0AC
:101E4C00E490000BF090001074FFF07E007F04FD16
:101E5C007B017A00790C120B20900009E0FD9000B8
:101E6C00157401F0A37400F0A3740CF0900006122A
:101E7C0037CFE4FFEFC39403748094805062EF7506
:101E8C00F005A424A6F582E43400F583E0F4604D5B
:101E9C00E490000BF090000BE0FD7C00C394047404
:101EAC008094805032E0FEEF75F005A424A2F582F8
:101EBC00E43400F583E5822EF582E43583F583E086
:101ECC00FB740C2EF582E43400F583E0B503089026
:101EDC00000BE004F080BEED64044C60030F8094B2
:101EEC00EFC39403748094805025EF75F005A424FF
:101EFC00A6F582E43400F583E0FE90000AE0FDEEE6
:101F0C006D6005ED64037007900010EFF080069093
:0A1F1C00001074FFF0900010E0FFC9
:011F26002298
:0E230200900006EBF0A3EAF0A3E9F0A3EDF0E3
:10231000E4A3F0A3F0900016F0A374FFF0E49000A3
:102320000AF090000AE0FFC3940374809480400395
:10233000022471EF75F005A424A6F582E43400F5BB
:1023400083E0F47003022468900009E064066052A0
:10235000A3E075F005A424A2F582E43400F583E03F
:102360006412703EEF75F005A424A3F582E43400F6
:10237000F583E06434702B90000AE075F005A42426
:10238000A4F582E43400F583E064567015EF75F02F
:1023900005A424A5F582E43400F583E0F47003027B
:1023A00024687E007F087DFF7B017A00790E120B86
:1023B0002090000AE075F005A424A2F9740035F01D
:1023C000FA7B01C00390002CEBF0A37400F0A3741F
:1023D0000EF0D0031236D2900016EFF0E490000C0D
:1023E000F0900016E0FF90000CE02FFFE433FE9029
:1023F0000009E0FDD3EF9D7480F86E98505EE49084
:10240000000DF0900016E0FF90000DE0FEC39F501D
:1024100037EEFF90000CE02FFFE433FE900006E063
:10242000FBA3E0FAA3E0F98F828E831205FBFF90F5
:10243000000DE0240EF582E43400F583E0B50708D2
:1024400090000AE004F080BB900016E0FF90000DC1
:10245000E06F600890000CE004F08085900016E0CA
:10246000FF90000DE06F600990000AE004F0022385
:102470002290000AE0FFC3940374809480500122EC
:10248000E4900028F0FE7F087DFF7B017A00791838
:10249000120B2090002C7401F0A37400F0A37418A8
:1024A000F07B017A0079A21236D2900016EFF0E4A8
:1024B00090000AF090000AE0FFC3940874809480B2
:1024C000507574182FF582E43400F583E0F4900021
:1024D0000A700EE02418F582E43400F583E4F080FD
:1024E0000EE02418F582E43400F583E02430F09007
:1024F0000006E0FBA3E0FAA3E0F990000AE0FFF594
:10250000827583001205FBFEF4700E740E2FF582A7
:10251000E43400F583E4F0801590000AE0FFEE2437
:1025200030FE740E2FF582E43400F583EEF0900057
:102530000AE004F00224B490002C7401F0A37400AB
:10254000F0A37418F0A37401F0A37400F0A374D383
:10255000F0A37401F0A37400F0A37420F07B017A5F
:1025600000790E122000900028EFF0D394007480C0
:102570009480401978D37C007D017B017A0079201A
:0D2580007E007F081205BC123A9E7F0422E7
:02258D007FFFCE
:01258F002229
:0E2F4D00900006EBF0A3EAF0A3E9F0A3EDF08C
:102F5B0090000B74FFF090000AE0FF7E007004A35A
:102F6B00F08019EF64024E700790000B04F0800C98
:102F7B00EF64014E700690000B7402F090000BE0B2
:102F8B00C394037480948050737E007F047DFF7B19
:102F9B00017A00790C120B20900009E0FD900015CE
:102FAB007401F0A37400F0A3740CF09000061237B8
:102FBB00CF90000BE075F005A424A2F9740035F056
:102FCB00A801FC7D017B017A00790C7E007F041245
:102FDB0005BC90000AE0FFA3E075F005A424A6F55C
:102FEB0082E43400F583EFF07B017A0079A2900044
:0E2FFB002DE4F0A3740FF07F01023AAF7F01C6
:0130090022A4
:1049FD00E4FF0FEFFD7C00C394147480948050117C
:104A0D0074B12FF582E43400F583E0F460030F8078
:0F4A1D00E2C3ED9414EC6480948040037FFF2289
:014A2C002267
:104E6400EFC3941474809480501174B12FF582E4CC
:0E4E74003400F583E0B507037F00227F0122A2
:104D160074B12FF582E43400F583EFF07B017A005D
:104D260079B190002DE4F0A37414F07F02023AAF3B
:104A8B00AE07124E64EF702174B12EF582E4340040
:104A9B00F58374FFF07B017A0079B190002DE4F07F
:0C4AAB00A37414F07F02023AAF7F0122D6
:10544C009000CBE0B507037F00229000CB123A9C72
:01545C00222D
:065765009000CBE0FF22E2
:10545D009000CAE0B507037F00229000CA123A9C63
:01546D00221C
:06576B009000CAE0FF22DD
:104F73009000CDEFF07B017A0079C990002DE4F029
:094F8300A37412F0E4FF023AAF3E
:065771009000CDE0FF22D4
:104F8C009000CEEFF07B017A0079C990002DE4F00F
:094F9C00A37412F0E4FF023AAF25
:065777009000CEE0FF22CD
:0856EC009000CFEFF07F0022D7
:06577D009000CFE0FF22C6
:0856F4009000D2EFF07F0022CC
:065783009000D2E0FF22BD
:0729D2004401E9FFFFFFFFD4
:0357FF000257D579
:035802000254C08D
:03580500021F2758
:03580800025747FD
:103DD4007EFFEFB40C005059903DE3F8282873029D
:103DE4003E07023E0B023E0F023E13023E17023E06
:103DF4001B023E1F023E23023E27023E2B023E2FA1
:103E0400023E337E03802A7E0680267E0980227E3F
:103E14000B801EE4FE801A7E0880167E0580127ECA
:103E240002800E7E0A800A7E0780067E0480027E5F
:033E340001AF06D5
:013E37002268
:01582B00225A
:0B29D9004401C1000000004101C000EB
:03580B00024CD676
:0F54CF0074C02FF582E43401F583E4F002571B1B
:0F54DE0074C02FF582E43401F583E4F0025666C2
:03580E000250370E
:10499C00900008EFF0A3EDF0EB9000086007E0FF4B
:1049AC001254CF8005E0FF1254DE900009E0FF9016
:1049BC000008E024C0F582E43401F583EFF00255E1
:0149CC0046A4
:1041E700E4FF900003F0900003E0FEC394047480A2
:1041F7009480503F74C12EF582E43401F583E0606A
:104207002A900003E004FF12580E7F01900003E09C
:10421700FE24C1F582E43401F583E0F4600D74C136
:104227002EF582E43401F583E014F0900003E004F6
:09423700F080B3EF60031255465C
:01424000225B
:06578900900003EFF02286
:06578F00900003EFF02280
:0E5538009001C07401F01255547F0C02578F81
:104861009001C0E0FFC3940D74809480501FEF54F9
:1048710001FD7C00640170077F0C1257898009EDEE
:104881004C70057F0C12578F12555480057F0C1206
:09489100578F9001C0E004F022F1
:03581100024ED86C
:03581400024EF24F
:10530A00125344D3EF9400748094804006125814C8
:04531A001256A12264
:0657950012581102567EBD
:104BEA00125704900002EFF030E0031258149000BC
:104BFA0002E030E1031241E7900002E030E20312E2
:024C0A004861FF
:014C0C002285
:10504E00124ED87FC87E00124EBC124DB07FC87E65
:07505E0000124EBC024D746C
:0D556F00124DCE7FC87E00124EBC024D9240
:01582C002259
:1029E40044014CFFFFFFFF41015400410153FF41EB
:0B29F4000152FF410151FF4101500062
:1036430090000074FFF0A3F0125805900000EFF013
:10365300F46027E0FF123DD4900001EFF0F4601A0C
:10366300E0FF900151E06F6017900001E0FB9001D3
:1036730051F0E4FDFF124B83800690015174FFF07B
:103683001257EAEF60057F04124B80124C949000AE
:1036930000EFF060057F03124B8012551A90000172
:1036A300EFF06009E0FBE4FD7F05124B8312500845
:1036B300EF6008E4FBFD7F01124B831254FCEF60C3
:0F36C30008E4FBFD7F06124B83124BEA024A2DEF
:104C7300125802EF700C125817EF60061257FCEF30
:104C8300700E125747123DD4900151EFF01252B7F4
:014C930022FE
:104E9F00900151E0F470151257E7EF700F12581789
:0D4EAF00EF60091257FCEF600312547F22E0
:0D557C00900151E0F470037F01227F0022B6
:1044F8007B017A00790012351BEF603712570C9058
:104508000000E014601724FE601B24FE601F146086
:104518001F2406701E900002E0FF0211AA900002FC
:10452800E0FF022590900002E0FF0240D602568A82
:03453800124FA57A
:01453B00225D
:034B8000E4FBFD56
:104B8300900002EFF0A3EDF0A3EBF078057C007D3D
:104B9300017B017A0079027E007F031205BC023F8C
:014BA3005EB3
:06579B00900152EFF02224
:0657A100900152E0FF221E
:104B3500E4900154F0900153F0FE7F087DFF7B0166
:104B45007A017955120B207E007F087DFF7B017A63
:064B550001795D020B2056
:0657A700E4900153F02222
:0511AA00900003EFF0CE
:1011AF001257A1900004EFF012086111E50012210F
:1011BF000112210212211212211716E32216E32324
:1011CF0016E32712214117335316F0561761601794
:1011DF0066700000176B900003E0640A700F1256E0
:1011EF00E47F011256EC7F0D124F268047900003CB
:1011FF00E0640B600302176B1256E47F11124F2647
:10120F007F041254CF7F031254CF124B357F01024C
:10121F001763900154E0704B900003E0640A704331
:10122F001256E4900004E064017011125759EF60F8
:10123F000302176B12530A7F60021763900004E0DA
:10124F006402701CFF12575F125759EF7008125348
:10125F000A7F600217637F011254DEE4FF021763F7
:10126F000217301256E4900004E064017003FB8013
:10127F000A900004E0640270097B017D017F041273
:10128F00499C900003E0FF7E00C37480948050035C
:10129F00021334D3EF940974809480400302133403
:1012AF00900154E0C39408748094805078900004A7
:1012BF00E0FF64016005EF64027016900003E0FF29
:1012CF00900154E0FE04F074552EF582E434018051
:1012DF0050900004E0FF6412600AEF64176005EF9E
:1012EF0064417041900153E0FF7E00701A9000033B
:1012FF00E0FD900154E0FC04F074552CF582E434C9
:10130F0001F583EDF0801EEF64014E70189000031D
:10131F00E0FF900154E0FE04F0745D2EF582E4349A
:10132F0001F583EFF0900003E0640A6003021425D7
:10133F00A3E064017065900154E06402705DA3E066
:10134F007059A3E070557F0112575F12576BEF7002
:10135F00107F0112545DEF70047F1F80127F208079
:10136F000EE4FF12545DEF70047F1E80027F201287
:10137F004F26E4FF12575F7F041254DE7F0312548F
:10138F00DEE4FF12579B7E007F087DFF7B017A0111
:10139F007955120B20E4900154F022900153E0FF95
:1013AF007E00700FA3E0FD14F074552DF582E43428
:1013BF00018015EF64014E7014900154E0FF14F09A
:1013CF00745D2FF582E43401F58374FFF0900154BE
:1013DF00E0600302176B900004E0FF6412600AEFF5
:1013EF0064176005EF64417010900153E070057F42
:1013FF00180217687F19021768900004E0640170E3
:10140F00057F11021768900004E064026003021761
:10141F006B7F16021768900003E0640B602FA3E048
:10142F00FF7E006401700D900154E0C39408748036
:10143F0094805019EF64014E700302176B900154A2
:10144F00E0C3940874809480500302176B9001548A
:10145F00E0FF7E00C3940674809480400302151D44
:10146F00900004E06401706DEF64027010900155FC
:10147F00E0700AA3E07006124CB502157F9001547C
:10148F00E064027048A3E07044A3E06401703E1270
:10149F005783EF6401702490015004F0FF12575FDF
:1014AF001257E47F16124F267F011254CF7F03127B
:1014BF0054DE7F041254DE7F02800C7F011256F43B
:1014CF007F2D124F26E4FF12579B02157F7F0112CB
:1014DF003B0902157F900004E064027010FB7D024F
:1014EF007F0312499C7F15124F2602157F7F15121D
:1014FF004F26E4900154F0900153E070030215E67B
:10150F00900153E06401600302176B02161D9000F7
:06151F0004E064017061AC
:10152500A3F07B017A017955900154E0FD12230265
:10153500900005EFF0F470077F01123B09803B90A6
:101545000005E064047022125783EF6401701AFFEE
:101555001256F47F2E124F267F031254DE7F04129B
:1015650054DEE4FF12579B8011900005E064017082
:0F157500047F1180027F0112300AE4900154F0CC
:101584008060900004E0640270657B017A01795503
:10159400900154E0FDE490000AF0121E3EEFF47056
:1015A4000FFB7D027F0312499C7F12124F26802D70
:1015B4001254A0E4FF1256EC900150E06401701A3A
:1015C400FF1256F47F2E124F267F011254DEE4FFE1
:1015D40012575FE4FF12579B8003125529E49001D0
:1015E40054F0FE7F087DFF7B017A017955803590A8
:1015F4000004E0FF6412600DEF64176008EF6441BB
:10160400600302176B900153E0701C7F19124F2680
:101614009001537401F0E4A3F0FE7F087DFF7B0189
:101624007A01795D020B20900153E06401600302AA
:10163400176B78557C017D017B017A01795DFE7F12
:1016440008120AFCEF3395E04F60030216DB9000AA
:1016540004E0641270247B017A017955900154E00E
:10166400FD90000A7401F0122F4DEF640170047FA5
:101674002080027F1A124F268058900004E06441B3
:1016840070237B017A017955900154E0FDE49000C8
:101694000AF0122F4DEF640170047F2080027F1A3C
:1016A400124F26802D900004E06417702F7B017A7E
:1016B400017955900154E0FD90000A7402F0122F54
:1016C4004DEF640170047F2080051256597F1A1271
:1016D4004F2612552980057F15124F26024B35904F
:1016E4000003E0640A600302176B803D900003E08E
:1016F40064017012FF12544CEF70047F0F80027F5C
:1017040020124F268026900003E0640270137F01AC
:1017140012544CEF70047F1080027F20124F2680F9
:101724000B900003E0640A703E1256E402552990BF
:101734000003E0640A700F1256E4E4FF12575F12CC
:10174400530A7F60801912581A900003E0D39F5007
:10175400161256E4900003E014FF024F40E4FF0227
:07176400579B7F13124F2673
:01176B00225B
:05259000900003EFF0D4
:10259500E4A3F0A3F0A3F01257A1900007EFF064B5
:1025A5007070057F130227F4900007E0FF60166442
:1025B500016012EF6422600DEF64276008EF642369
:1025C50060030227F71257E412000E900004EFF0A3
:1025D50060030227ED900153E0FF1246C09000040E
:1025E500EFF060030227ED900153E0FF7B017A00D5
:1025F5007905123D0C900004EFF060030226E1908E
:102605000007E0FF64016003EF702B900005A3E075
:10261500FF124E64900004EFF070187F021257F914
:10262500900005E07002A3E070047F1280027F0233
:1026350002300A0226ED900007E0FF6422600AEFEF
:1026450064276005EF6454700A7F031257F97F0E03
:102655000227F4900007E0642360030227F7900047
:1026650005A3E0FF124E64900004EFF07064900142
:1026750053E0700C04F07F021257F97F080227F42B
:10268500120016900004EFF0703BA3A3E0FF124A7E
:102695008B900004EFF0700EA3E0FEA3E0FF12574D
:1026A50022900004EFF0900004E070097F021257B9
:1026B500F97F1C80077F031257F97F1B124F2612E3
:1026C50055290227C77F031257F97F20124F26028B
:1026D50027C77F031257F97F120227F4900007E0FE
:1026E500FF64016003EF700A7F031257F97F02024E
:1026F5003B09900007E0FF6422600DEF6427600846
:10270500EF645460030227DC900153E06402600328
:102715000227CD12001E900004EFF060030227BDD2
:10272500900007E064277008900005F0A3F0800B87
:102735001249FD900005E4F0A3EFF0900005E0706C
:1027450003A3E0F4700C7F031257F97F0B124F2699
:102755008061900005E0FCA3E0FDE4FF12438F904B
:102765000004EFF0900007E0FF64226005EF6427A6
:102775007050900004E07017A3A3E0FF124D16906F
:102785000004EFF06009A3E0FEA3E0FF12572290DA
:102795000004E070147F021257F9900007E06427E7
:1027A50070031256597F0680077F031257F97F057C
:1027B500124F26125529800A7F031257F97F0512F9
:1027C5004F26E4900153F022900153E004F07F027C
:1027D5001257F97F088018900007E0642370137F73
:1027E500031257F97F1280077F031257F97F0812EA
:0227F5004F266D
:0127F70022BF
:0540D600900003EFF073
:1040DB001257A1900004EFF0900003E064027025EA
:1040EB007F0112575F1257E47F16124F267F011282
:1040FB0054CF7F031254DE7F041254DEE490015040
:10410B00F07F02801E900003E064017019124132AF
:10411B00EF70047F2280027F26124F26E4FF125796
:06412B005FE4FF12579B48
:01413100226B
:104FA5001257B3900003EFF0700302429A9000038A
:084FB500E064017003123E9B51
:014FBD0022D1
:0729FF0044010CFFFFFFFF84
:1043DC00E4FFEFD3940A748094805036EF75F003A9
:1043EC00A42410F582E43401F58374FFF0EF75F02A
:1043FC0003A42411F582E43401F58374FFF0EF7506
:10440C00F003A42412F582E43401F58374FFF00F59
:09441C0080C0E4900131F0A3F02E
:014425002274
:10546E00EFC3940A748094805004EF04FF227F00EF
:01547E00220B
:10537B00EFD39400748094804005EF9401FF227F5B
:02538B000A22F4
:104A5C00900132E0FE900131E0FDB506037F0022AB
:104A6C00EDC39E500B900131E0FFA3E0C39FFF22EA
:0F4A7C00900132E0FF900131E0C39F240BFF2235
:10538D00900132E0FF900131E0B507037F01227FEC
:02539D000022EC
:1052A200900132E0FF12546E900131E0B507037FA6
:0552B20001227F002233
:103F5E00E4900008F0A3F01252A2EF64017002FF89
:103F6E0022900005E0FE900132E0FF75F003A424DC
:103F7E0010F582E43401F583EEF0900006E0FEEFDA
:103F8E0075F003A42411F582E43401F583EEF0906C
:103F9E000007E0FEEF75F003A42412F582E434016D
:0E3FAE00F583EEF012546E900132EFF07F01B9
:013FBC0022E2
:10351B00E4900003F0A3F012538DEF64017002FFEF
:10352B0022900131E075F003A42410F582E43401FC
:10353B00F583E0120628900131E0FF75F003A42417
:10354B0011F582E43401F583E090000112063AEFA5
:10355B0075F003A42412F582E43401F583E09000A6
:10356B000212063A900131E0FF75F003A42410F526
:10357B0082E43401F58374FFF0EF75F003A424119A
:10358B00F582E43401F58374FFF0EF75F003A424A6
:10359B0012F582E43401F58374FFF012546E90013E
:0535AB0031EFF07F018B
:0135B00022F8
:102A06004401AAFFFFFFFF4101AE004201AF0000F3
:01582D002258
:10394100E490009FF0125753EF70309001AEE07099
:10395100609001B0E004F070069001AFE004F0C3A4
:103961009001B0E094289001AFE0940040439001B1
:10397100AE7401F0E4A3F0A3F080369001AEE0FF55
:103981007E007017D39001B0E094009001AFE094F5
:103991000040089001AE7403F0800AEF64024E709B
:1039A100049001AEF0E49001AFF0A3F090009F0409
:0639B100F090009FE0FF12
:0139B70022ED
:03581700025753E2
:104C94009001AEE0FD7C00640170067402F07F01B7
:104CA40022ED64034C70079001AEF07F02227F0076
:014CB40022DD
:102A16004400F5FFFFFFFF410101004200FA0000FC
:102A26004200FC000042010400004100F90041019F
:102A36000300410107004100DB004101090041019B
:102A460008004100DC0041010A0041010200410189
:102A5600060041010B004300FE0000005800DDFFA8
:102A66005596FF4C2FFF53C3FF55B0FF56C0FF4C82
:072A760051FF55A3FF53B10E
:0956D3001243DC124B35022CD508
:10547F001257F3E49000F9F0900101F07F610257A9
:01548F009B81
:1052B7001257F0124AB7EF700B12581D1249CDE47E
:0552C700FF12579B22BD
:10539F007F09124F267BFF7A5779AD7F3C7E000243
:0253AF00446D4B
:10300A00900008EFF0E490010BF0125765EF6401AD
:10301A00705D900008E0FFFD64086053EF54107083
:10302A004EEDF4FFE4F4FE900101E0FDFBEF5B607E
:10303A0004E4F0803A900008E04D900101F07F032B
:10304A001254CF7F041254CF900008E024FE60157A
:10305A0024E2600824E06004243F70607F07124F76
:10306A0026E4FF80077F11124F267F0102579B7FBC
:10307A005212579B1254A0E4FF1256EC7F031254CB
:10308A00DE7F041254CF12579512504E12539F905E
:10309A000008E014601D14601D24FA601C24F66008
:1030AA000F24F2600E24E0600A242F700F0250658C
:0D30BA0002507C0255F10255FE12582322EF
:103B090090010BE004F0EF24FE60230470487F125B
:103B1900124F267B017D027F0312499C90010BE025
:103B2900C3940574809480402D12563280287F12E8
:103B3900124F267F041254CF7B017D027F03124965
:103B49009C90010BE0C39405748094804003125645
:103B59003FE4FF12579B90010BE0C39405748094D6
:093B6900804005E4F012528D22A7
:0F54ED007F0A124F267F041254DEE4FF02579B02
:0657AD0012556F0254EDDD
:0856FC00E4FBFD7F04024B8377
:104938001257A1EFFD7C00C3941274809480400A42
:10494800D3ED944174809480400CED64534C600620
:10495800ED64564C70077F0C124F2680007F601262
:02496800579B5B
:01496A00222A
:1027F8001257A190009DEFF09000F9E0640170304D
:102808009000FDE004F070069000FCE004F09001F8
:1028180004E0FEA3E0FFC39000FDE09F9000FCE011
:102828009E400D9000F97402F0E49000FCF0A3F0D3
:10283800900103E06401701B900107E004F0E0C31D
:10284800940474809480400B9001037402F0E49027
:102858000107F0900108E0D3940074809480400B45
:10286800E014F0E07005A3E05401F09000DCE0D340
:10287800940074809480400DE014F0E0700790019B
:1028880009E05402F090010AE0D394007480948027
:10289800400DE014F0E07007900109E05404F09056
:1028A8000102E064017016900106E004F0E0C394B0
:1028B800057480948040069001027402F012394138
:1028C800EF700302294B90009DE0FF64616074EF94
:1028D8006460606F9000F9E06401606712557CEFF6
:0A28E8006401705F1252CCEF7059CA
:1028F20090009EF09000FBE004F070069000FAE079
:1029020004F090009DE0FF6412600FEF6441600AE2
:10291200EF64226005EF64237011D39000FBE09412
:10292200C89000FAE094004017800FD39000FBE0BB
:1029320094109000FAE09427400690009E7401F0F3
:0929420090009EE0600A02493891
:07294B00E49000FAF0A3F094
:012952002262
:0F54FC00900103E064027004F07F01227F002220
:1054B000E4900107F090010304F09000DBEFF0228C
:0657B3009000DBE0FF2284
:0C567E00900108742CF0A3E054FEF02210
:0B56A100E4900108F0A3E054FEF022AA
:10534400900108E0D394007480948040037F01228C
:035354007F0022B5
:0E5546009000DC7405F0900109E054FDF022A5
:0E55540090010A7404F0900109E054FBF0226B
:07570400900109E0FFE4F051
:01570B00227B
:0D5589009001067405F09001027401F022FB
:0A56B600E4900102F0900106F022DA
:0F550B00900102E064027004F07F01227F002211
:08570C00E49000FAF0A3F02282
:0F551A009000F9E064027004F07F01227F00220C
:10446D00900009EBF0A3EAF0A3E9F0EF4E602BE426
:10447D009000FCF0A3F0900104EEF0A3EFF090009B
:10448D0009E0F9A3E0FAA3E09000FEC9F0A3EAF079
:10449D00A3E9F09000F97401F022900009A3E0FA6D
:0744AD00A3E0F912088722C9
:0C568A009000FEA3E0FAA3E0F9020887FC
:104AB700123BDA900005EFF0D394007480948040A5
:104AC700187F13124F261250A9900005E064027058
:0B4AD700087F7012579B7F01227F00B8
:014AE20022B1
:104CB500125777EF6006124340EF70057F20024FD1
:104CC500267F041254DE7F031254DEE4FF12579B45
:014CD50022BC
:0D5596007F11124F26124B357F1202579BDA
:0D55A3007F11124F26124B357F1702579BC8
:104C2F001249FDEFF470087F0B124F260255297FB2
:104C3F0007124F267F011257F91257A77F221257DB
:024C4F009B22A6
:1053B1007F07124F267F011257F91257A77F270245
:0253C100579BF8
:1053C3007F07124F267F011257F91257A77F230237
:0253D300579BE6
:0D55B0007F18124F26124B357F4102579B8A
:0A56C0007F1D124F267F5602579BF4
:104C51001246FFEF70087F26124F260255297F5515
:104C610012579B7F25124F267B017DFF7F01124941
:024C71009C2283
:03581A007F0822E2
:0F5529007F17124F26E4FF1257F97F5302579B4B
:104F4000EF75F003A424DDF582E43400F583A3E0DB
:0A4F5000FAA3E0F91208877F00229F
:102A7D004401A4FFFFFFFF4201A800004101A20095
:042A8D004101A30060
:03581D000250FE38
:035820000251131F
:1046FF009000007401F01250FE7FFA7E00124EBC43
:10470F00124F0CEF700E7FFAFE124EBC124F0C9030
:10471F000000EFF0900000E06401700C9001A8F031
:0D472F00A304F0E4FF1254B0900000E0FF7E
:01473C00225A
:104FBE00E4FF124F8C7F26124F26E4FF12575F7FBD
:094FCE00011254DEE4FF02579BBE
:104FD7007F01124F8C7F24124F26E4FF12575F7F09
:094FE700011254DEE4FF02579BA5
:10429A009001A9E004F070069001A8E004F0124130
:1042AA008DEF6401701A9001A2E004F0E0C3940259
:1042BA0074809480400F124FD7E49001A2F08018C6
:1042CA00E49001A2F0D39001A9E094589001A8E0EB
:1042DA009402400B124FBEE49001A8F0A3F022E42E
:0442EA00FF1254B0BB
:0142EE0022AD
:104340009000067401F0D39001A9E094009001A8B8
:10435000E0940040037F002212581D7FFA7E001275
:104360004EBC124E46EF700E7FFAFE124EBC124E3D
:1043700046900006EFF0900006E06401700B90019B
:0E438000A8F0A304F0FF1254B0900006E0FF76
:01438E00220C
:103E9B00123753900004EFF09001A9E004F0700684
:103EAB009001A8E004F0EF640170121257A1EF64C7
:103EBB006170031252B77F0812300A8027900004FA
:103ECB00E06402600FD39001A9E0942C9001A8E06C
:103EDB00940140181257A1EF646170031252B77F1F
:103EEB0020124F26E49001A8F0A3F0227F01125478
:013EFB00B016
:013EFC0022A3
:0D55BD0012581D7F967E00124EBC02512830
:0D55CA0012581D7F967E00124EBC02513D0E
:0D55D70012581D7F967E00124EBC025152EC
:0D55E40012581D7F967E00124EBC025167CA
:0D55F10012581D7F647E00124EBC025191C5
:0D55FE0012581D7F967E00124EBC0251BB5C
:0D560B0012581D7F967E00124EBC0251A663
:0D56180012581D7F967E00124EBC0251D02C
:0358230002517CB3
:035826000252F635
:0D56250012581D7F967E00124EBC0251E50A
:0D56320012581D7F967E00124EBC0251FAE8
:0D563F0012581D7F967E00124EBC02520FC5
:0D564C0012581D7F967E00124EBC025224A3
:1050A9009001A3E0700F04F012581D7F967E001244
:0550B9004EBC1252394B
:0150BE0022CF
:1050650012581D7F967E00124EBC1252637F147E2D
:0750750000124EBC02519134
:10507C0012581D7F967E00124EBC12524E7F147E2B
:07508C0000124EBC0251BBF3
:0D56590012581D7F967E00124EBC02527842
:1052CC00D39001A9E094009001A8E0940040037FE2
:0552DC0001227F002209
:10009E000203BFE86480F8E933E83360110460F0CE
:1000AE00ED33EC337009E8FCE9FDEAFEEBFF2204C8
:1000BE0060DED3EB9FEA9EE99DE8C2E78CF0C2F7C3
:1000CE0095F0400CE8CCF8E9CDF9EACEFAEBCFFB8F
:1000DE0012038A85D0F05804700320D5B3E804705B
:1000EE00075002B2D50203C992D5EC0460F7E4CCF6
:1000FE00C0E0C398F8603B94186008400DD0E0FB58
:10010E000203A1E4FBFAC9FC8028E830E406E4C946
:10011E00FBE4CAFCE830E305E4C9CACBFCE85407AB
:10012E006010F8C3E913F9EA13FAEB13FBEC13FCB6
:10013E00D8F130F52FC3E49CFCEF9BFFEE9AFEED59
:10014E0099FDD0E0FBEF4E4D4C701222DB03020303
:10015E00C6EC2CFCEF33FFEE33FEED33FDED30E756
:10016E00EB0203A1EF2BFFEE3AFEED39FDD0E0FBE3
:10017E0050130BBB00030203C9ED13FDEE13FEEF8C
:08018E0013FFEC13FC0203A1B6
:10019600EC4D6011E8497017ED33EC3304600DE463
:1001A600FCFFFEFD22E933E8330470F80203BF12B8
:1001B600038A58046009E4CC2481500628500902B9
:1001C60003C92840030203C6C0E0EB4A7044B98065
:1001D60006D0E0FB0203B5EF4E701CBD8008EBFFB6
:1001E600EAFEE9FD80EBE98DF0A4FEE5F002027F70
:1001F600E9CDF9EAFEEBFFEF89F0A4FCE5F0CE8944
:10020600F0A42EFFE435F0CD89F0A42DFEE435F000
:100216008067EF4E7005BD80D780C3EF8BF0A4AC2E
:10022600F0EE8BF0A42CFCE435F0F8EF8AF0A42C69
:10023600E5F038FCE433CB8DF0A42CFCE5F03BF87C
:10024600EE8AF0A42CFCE5F038F8E433CF89F0A46C
:100256002CFCE5F038CF3400CE89F0A42FFFE5F072
:100266003EFEE433C98DF0A42EFEE5F039CD8AF0CA
:10027600A42FFFE5F03EFEE43DFD33D0E0FB500742
:100286000BBB000F0203C9EC2CFCEF33FFEE33FE71
:06029600ED33FD0203A19F
:10029C0074F8CC6480CCC86480C8F58204604FC309
:1002AC00EB9FF5F0EA9E42F0E99D42F0E89C45F0A8
:1002BC00603C501DE5825FFFE582D313CB5BCBF432
:1002CC002B5582FB50280ABA002409B9002008805B
:1002DC001DE5825BFBE582D313CF5FCFF4C3132FF5
:1002EC005582FF50090EBE00050DBD00010CC3EB7D
:1002FC009FF5F0EA9E42F0E99D42F0E89C45F060E3
:09030C0007CC4820E701B3EC2204
:1003150075F020800E75F010800575F0087D007E63
:10032500007F003392D530D5031207BDEC33401062
:10033500EF33FFEE33FEED33FDEC33FCD5F0ED226C
:0E034500E5F0247EA2D513CC92E7CDCEFF22A8
:10035300EDD2E7CD33EC3392D524814006E4FFFEA2
:10036300FDFC22FCE4CFCECDCC24E0501174FF8001
:10037300EDC3CC13CCCD13CDCE13CECF13CF04709E
:07038300F030D5DE0207BDDA
:101CD80090008E12080AE4FFFE7D807C3F90008E03
:101CE800E0F8A3E0F9A3E0FAA3E0FB12029C700677
:101CF80090008E021E3290008EE0FCA3E0FDA3E06F
:101D0800FEA3E0FF1203D4FBA3E0FCA3E0FDA3E0E5
:101D1800FEA3E0FF1203D4FFB40108E4FFFE7D80B8
:101D28007C3F22EF64046029EB64046024EBB40177
:101D380030E4FFFEFDFC900092E0F8A3E0F9A3E098
:101D4800FAA3E0FB12029C60084006E4FFFEFDFCDB
:101D580022900092120816FFFFFFFF900092021EC9
:101D680032E4900096F0A3F0FFFEFDFC90008EE0B8
:101D7800F8A3E0F9A3E0FAA3E0FB12029C505F90FD
:101D88000092E0FCA3E0FDA3E0FEA3E0FF120353F2
:101D9800900096EEF0A3EFF0FDCCEECCEC12031A17
:101DA800C8ECC8C9EDC9CAEECACBEFCB900092E027
:101DB800FCA3E0FDA3E0FEA3E0FF1200A1E4FBFA10
:101DC800F9F812029C708A90008EE0FCA3E0FDA353
:101DD800E0FEA3E0FF1203EE90008E12080A9000C6
:101DE8008EE0FCA3E0FDA3E0FEA3E0FF122AC6906C
:101DF8000092E0F8A3E0F9A3E0FAA3E0FB12019651
:101E080012338890009212080A900097E030E01789
:101E1800900092E0FCA3E0FDA3E0FEA3E0FF120324
:101E2800EE90009212080A900092E0FCA3E0FDA355
:061E3800E0FEA3E0FF2222
:10038A00E9D2E7C933E833F892D5EDD2E7CD33ECB9
:07039A0033FC5002B2D52232
:1003A100EC30E7100FBF000C0EBE00080DBD0004BD
:1003B1000BEB6014A2D5EB13FCED92E7FD2274FF69
:1003C100FCFDFEFF22E480F8A2D574FF13FC7D80C2
:0303D100E480EFD6
:1003D400ED33EC33601004700FED547F700574023C
:0A03E40092E0227404220422E422B5
:1003EE00ED33EC33600A047003BD8004ECB2E7FC1D
:0103FE0022DC
:1033500033DA929E35B16011377FE5FE39218489D9
:103360003AAEC3FF3C1D955B3D6358473E75FDF08B
:103370003F3172183F800000C2D50203C90203BF6B
:10338000BD80FA50F30203C6ED33EC330460F17BE9
:103390003B7AAA79B8783F120196ED33EC3392D597
:1033A000247B5011A2D570DB500BED4480240450D7
:1033B00004A2D580CEEFFBEEFAEDF9ECF812035340
:1033C000EFF582F404FC12031F1200A5C0829033B3
:1033D0005074091204AEED33CC33D0F092D525F001
:0A33E000A2D57001C313CC13FD2227
:102A92003E9248DA3ECCCCCD3F2AAAAB40000000A1
:102AA2003F8000003F9837F03FB504F33FD744FC26
:102AB2003E3172173EB172173F0515913EDE5BD96A
:102AC200D2128002C212EDD2E7F8CD33EC33047099
:102AD2000BBD800592D50203C90203BF40FBD3148C
:102AE20060F2F5F07C3FEE7A00C39496C8948B4076
:102AF200230AC89469C8941A401A0AC89468C894E8
:102B02001F40110AC8945AC89425400805F07A005B
:102B1200CDC2E7CDC0F090009812080AEA2323C084
:102B2200E024A2F582E4342AF5831207FA1200A502
:102B3200ECC0E0EDC0E0EEC0E0EFC0E01207DE90D6
:102B420000981207EE1200A1D0E0FBD0E0FAD0E02C
:102B5200F9D0E0B2E7F812040290009812080A9045
:102B62002A92740312049F9000981207EE120196A3
:102B7200D0E0600F24AEF582E4342AF5831207FA1E
:102B82001200A590009812080AD0E0C3947FFDE4D9
:102B92009400FC12031A7B187A727931783F120181
:102BA200969000981207EE1200A530120B7BD97A8C
:092BB2005B79DE783E12019622E7
:1003FF000203C9EC5D046005E8590470030203BFF2
:10040F0012038A580460F6EC4860F2EC7004FDFEAB
:10041F00FF22C860DB2481C85009C39860025006D0
:10042F000203C69850CAF582E9294B4A7005AB8280
:10043F000203B575F0007C1A7880C3EF9BEE9AED3E
:10044F0099400DC3EF9BFFEE9AFEED99FDE842F048
:10045F00DC23ACF0D0E0FFD0E0FED0E0FDAB82209B
:10046F00E7101BEB60BAEC2CFCEF33FFEE33FEED25
:10047F0033FD0203A1E803F830E705C0F075F00083
:10048F00EF2FFFEE33FEED33FD40B830E7C280AA09
:10049F00C0E0EFFBEEFAEDF9ECF8120196D0E0F5C3
:1004AF00F0EFFBEEFAEDF9ECF81207DEA3A3A3A32E
:1004BF00E8C0E0E9C0E0EAC0E0EBC0E0C0F0120144
:1004CF00961207FAA3A3A3A31200A5D0F0D0E0FBC6
:0D04DF00D0E0FAD0E0F9D0E0F8D5F0D4225A
:1032D000024681E493A3F8E493A34003F68001F24D
:1032E00008DFF48029E493A3F85407240CC8C333FF
:1032F000C4540F4420C8834004F456800146F6DFCE
:10330000E4800B0102040810204080902953E47EE1
:10331000019360BCA3FF543F30E509541FFEE493C2
:10332000A360010ECF54C025E060A840B8E493A389
:10333000FAE493A3F8E493A3C8C582C8CAC583CAB4
:10334000F0A3C8C582C8CAC583CADFE9DEE780BE6C
:012A91000044
:1004EC00E709F608DFFA8046E709F208DFFA803EF2
:1004FC0088828C83E709F0A3DFFA8032E309F608DF
:10050C00DFFA8078E309F208DFFA807088828C8346
:10051C00E309F0A3DFFA806489828A83E0A3F608FA
:10052C00DFFA805889828A83E0A3F208DFFA804CD4
:10053C0080D280FA80C680D4806980F280338010AB
:10054C0080A680EA809A80A880DA80E280CA803314
:10055C0089828A83ECFAE493A3C8C582C8CCC5838C
:10056C00CCF0A3C8C582C8CCC583CCDFE9DEE7805C
:10057C000D89828A83E493A3F608DFF9ECFAA9F0DB
:10058C00EDFB2289828A83ECFAE0A3C8C582C8CC31
:10059C00C583CCF0A3C8C582C8CCC583CCDFEADE4A
:1005AC00E880DB89828A83E493A3F208DFF980CCAC
:1005BC0088F0EF60010E4E60C388F0ED2402B404A5
:1005CC000050B9F582EB2402B4040050AF2323454C
:0605DC00822390053C7330
:1005E200BB010689828A83E0225002E722BBFE0217
:0905F200E32289828A83E493224A
:1005FB00BB010CE58229F582E5833AF583E02250B5
:10060B0006E92582F8E622BBFE06E92582F8E222FE
:0D061B00E58229F582E5833AF583E4932218
:10062800BB010689828A83F0225002F722BBFE01B1
:02063800F322AB
:10063A00F8BB010DE58229F582E5833AF583E8F0F6
:10064A00225006E92582C8F622BBFE05E92582C8A2
:02065A00F2228A
:10065C00EF8DF0A4A8F0CF8CF0A428CE8DF0A42EB2
:02066C00FE226C
:10066E00C2D5EC30E709B2D5E4C39DFDE49CFCEEA7
:10067E0030E715B2D5E4C39FFFE49EFE120B4CC3C8
:10068E00E49DFDE49CFC8003120B4C30D507C3E4C3
:06069E009FFFE49EFE2216
:1006A400C5F0F8A3E028F0C5F0F8E58215827002E1
:0606B4001583E038F0227E
:1006BA00A3F8E0C5F025F0F0E582158270021583F3
:0606CA00E0C838F0E82250
:1006D000BB010A89828A83F0E5F0A3F0225006F775
:0F06E00009A7F01922BBFE06F3E5F009F3192272
:1006EF0075F008758200EF2FFFEE33FECD33CDCCC2
:1006FF0033CCC58233C5829BED9AEC99E582984045
:10070F000CF582EE9BFEED9AFDEC99FC0FD5F0D621
:10071F00E4CEFBE4CDFAE4CCF9A88222B800C1B94B
:10072F000059BA002DEC8BF084CFCECDFCE5F0CB89
:10073F00F97818EF2FFFEE33FEED33FDEC33FCEBC2
:10074F0033FB10D703994004EB99FB0FD8E5E4F97D
:10075F00FA227818EF2FFFEE33FEED33FDEC33FC6A
:10076F00C933C910D7059BE99A4007EC9BFCE99A5E
:10077F00F90FD8E0E4C9FAE4CCFB2275F010EF2FA3
:10078F00FFEE33FEED33FDCC33CCC833C810D707A3
:10079F009BEC9AE899400AED9BFDEC9AFCE899F8DE
:0E07AF000FD5F0DAE4CDFBE4CCFAE4C8F92271
:0E07BD00C3E49FFFE49EFEE49DFDE49CFC224D
:1007CB00E8600FECC313FCED13FDEE13FEEF13FF0C
:0307DB00D8F12230
:1007DE00E493FC740193FD740293FE740393FF2261
:0C07EE00E0F8A3E0F9A3E0FAA3E0FB228E
:1007FA00E493F8740193F9740293FA740393FB2255
:0C080A00ECF0A3EDF0A3EEF0A3EFF02261
:10081600A8828583F0D083D08212082D12082D126B
:10082600082D12082DE473E493A3C583C5F0C58390
:10083600C8C582C8F0A3C583C5F0C583C8C582C82C
:01084600228F
:10084700BB010789828A830208165005E9F8020B63
:0A085700A1BBFE05E9F8020BBA226E
:10086100D083D082F8E4937012740193700DA3A326
:1008710093F8740193F5828883E47374029368603A
:06088100EFA3A3A380DF3A
:060887008A838982E473FC
:102E880090008EEBF0A3EAF0A3E9F0E4900096F04E
:102E9800A3F0D3900095E09400900094E0648094AF
:102EA800805003022F4190008EE0FBA3E0FAA3E0DC
:102EB800F9900096E0FEA3E0F5828E831205FB6090
:102EC80010900097E004F070DD900096E004F08028
:102ED800D5900091E0FBA3E0FAA3E0F91205E260C7
:102EE8003E900091A3E475F0011206BAA9F0FA1217
:102EF80005E2FF90008EE0FBA3E0FAA3E0F9900062
:102F080096E475F0011206BA85F082F583EF120691
:102F18003A90009474FFF5F01206A445F070B29050
:102F2800008EE0FBA3E0FAA3E0F9900096E0FEA390
:102F3800E0F5828E83E412063A90008EE0FBA3E06F
:052F4800FAA3E0F922EC
:10088D00E709F60870FA8046E709F20870FA803E2B
:10089D0088828C83E709F0A370FA807EE309F6085D
:1008AD0070FA8076E309F20870FA806E88828C8384
:1008BD00E309F0A370FA806289828A83E0A3F608C7
:1008CD0070FA805689828A83E0A3F20870FA804A12
:1008DD0080D280FA80C680D4806580F2803180100D
:1008ED0080A680EA809A80A880DA80E280CA803172
:1008FD0089828A83ECFAE493A3C8C582C8CCC583E8
:10090D00CCF0A3C8C582C8CCC583CC70E9800D8955
:10091D00828A83E493A3F60870F9ECFAA9F0EDFB53
:10092D002289828A83ECFAE0A3C8C582C8CCC5832C
